{
  "contractName": "BKTree",
  "abi": [
    {
      "inputs": [
        {
          "name": "root",
          "type": "uint256"
        },
        {
          "name": "data",
          "type": "bytes32"
        },
        {
          "name": "threshold",
          "type": "uint256"
        }
      ],
      "payable": false,
      "stateMutability": "nonpayable",
      "type": "constructor"
    },
    {
      "constant": false,
      "inputs": [
        {
          "name": "id",
          "type": "uint256"
        },
        {
          "name": "dist",
          "type": "uint256"
        },
        {
          "name": "data",
          "type": "bytes32"
        },
        {
          "name": "_path",
          "type": "uint256[]"
        }
      ],
      "name": "addNode",
      "outputs": [],
      "payable": false,
      "stateMutability": "nonpayable",
      "type": "function"
    },
    {
      "constant": false,
      "inputs": [
        {
          "name": "id",
          "type": "uint256"
        },
        {
          "name": "path",
          "type": "uint256[]"
        }
      ],
      "name": "markCompleted",
      "outputs": [],
      "payable": false,
      "stateMutability": "nonpayable",
      "type": "function"
    },
    {
      "constant": true,
      "inputs": [
        {
          "name": "id",
          "type": "uint256[1]"
        }
      ],
      "name": "findPath",
      "outputs": [
        {
          "name": "",
          "type": "uint256[512]"
        },
        {
          "name": "",
          "type": "uint256[1]"
        }
      ],
      "payable": false,
      "stateMutability": "view",
      "type": "function"
    },
    {
      "constant": true,
      "inputs": [
        {
          "name": "id",
          "type": "uint256[1]"
        }
      ],
      "name": "searchNode",
      "outputs": [
        {
          "name": "",
          "type": "uint256[1]"
        },
        {
          "name": "",
          "type": "bytes32[512]"
        }
      ],
      "payable": false,
      "stateMutability": "view",
      "type": "function"
    }
  ],
  "bytecode": "0x6060604052341561000f57600080fd5b604051606080610b9283398101604052808051906020019091908051906020019091908051906020019091905050806000819055506080604051908101604052808481526020018360001916815260200160001515815260200160008152506001600082015181600001556020820151816001019060001916905560408201518160020160006101000a81548160ff02191690831515021790555060608201518160030155905050505050610ac9806100c96000396000f300606060405260043610610062576000357c0100000000000000000000000000000000000000000000000000000000900463ffffffff1680634d96f0501461006757806354400d6c146100e05780635e6bc4871461019257806398ad8653146101f5575b600080fd5b341561007257600080fd5b6100de600480803590602001909190803590602001909190803560001916906020019091908035906020019082018035906020019080806020026020016040519081016040528093929190818152602001838360200280828437820191505050505050919050506102a7565b005b34156100eb57600080fd5b610124600480806020019060018060200260405190810160405280929190826001602002808284378201915050505050919050506103ed565b604051808361020060200280838360005b83811015610150578082015181840152602081019050610135565b5050505090500182600160200280838360005b8381101561017e578082015181840152602081019050610163565b505050509050019250505060405180910390f35b341561019d57600080fd5b6101f360048080359060200190919080359060200190820180359060200190808060200260200160405190810160405280939291908181526020018383602002808284378201915050505050509190505061043f565b005b341561020057600080fd5b610239600480806020019060018060200260405190810160405280929190826001602002808284378201915050505050919050506104d2565b6040518083600160200280838360005b83811015610264578082015181840152602081019050610249565b505050509050018261020060200280838360005b83811015610293578082015181840152602081019050610278565b505050509050019250505060405180910390f35b6102af6109f0565b600080608060405190810160405280888152602001866000191681526020016000151581526020016000815250925060019150600090505b835181101561033957816004016000858381518110151561030457fe5b906020019060200201518152602001908152602001600020915061033260018261050c90919063ffffffff16565b90506102e7565b6000600102826004016000888152602001908152602001600020600101546000191614151561036757600080fd5b61037f6001836003015461050c90919063ffffffff16565b826003018190555082826004016000888152602001908152602001600020600082015181600001556020820151816001019060001916905560408201518160020160006101000a81548160ff0219169083151502179055506060820151816003015590505050505050505050565b6103f5610a1e565b6103fd610a48565b610405610a1e565b61040d610a48565b600081600060018110151561041e57fe5b602002018181525050610434858284600161052a565b935093505050915091565b60008060019150600090505b825181101561049d57816004016000848381518110151561046857fe5b906020019060200201518152602001908152602001600020915061049660018261050c90919063ffffffff16565b905061044b565b8382600001541415156104af57600080fd5b60018260020160006101000a81548160ff02191690831515021790555050505050565b6104da610a48565b6104e2610a70565b6104ea610a70565b6104f2610a48565b6104ff858284600161067b565b8082935093505050915091565b600080828401905083811015151561052057fe5b8091505092915050565b610532610a1e565b61053a610a48565b610542610a48565b610563846000015488600060018110151561055957fe5b6020020151610981565b81600060018110151561057257fe5b602002018181525050600084600401600083600060018110151561059257fe5b602002015181526020019081526020016000206000015414151561066a576105d760018760006001811015156105c457fe5b602002015161050c90919063ffffffff16565b8660006001811015156105e657fe5b6020020181815250508060006001811015156105fe57fe5b60200201518587600060018110151561061357fe5b60200201516102008110151561062557fe5b60200201818152505061066187878787600401600086600060018110151561064957fe5b6020020151815260200190815260200160002061052a565b92509250610671565b8481925092505b5094509492505050565b610683610a48565b61068b610a48565b610693610a48565b60006106b685600001548960006001811015156106ac57fe5b6020020151610981565b8460006001811015156106c557fe5b6020020181815250506106f66000548560006001811015156106e357fe5b60200201516109d790919063ffffffff16565b84600060018110151561070557fe5b602002015110158015610752575061073b60005485600060018110151561072857fe5b602002015161050c90919063ffffffff16565b84600060018110151561074a57fe5b602002015111155b156107d15761077e600188600060018110151561076b57fe5b602002015161050c90919063ffffffff16565b87600060018110151561078d57fe5b6020020181815250508460010154868860006001811015156107ab57fe5b6020020151610200811015156107bd57fe5b602002019060001916908160001916815250505b6107f96000548560006001811015156107e657fe5b60200201516109d790919063ffffffff16565b83600060018110151561080857fe5b602002018181525050600083600060018110151561082257fe5b60200201511015610834576000610849565b82600060018110151561084357fe5b60200201515b83600060018110151561085857fe5b60200201818152505061088960005485600060018110151561087657fe5b602002015161050c90919063ffffffff16565b82600060018110151561089857fe5b60200201818152505084600301548260006001811015156108b557fe5b6020020151106108dc576108d7600186600301546109d790919063ffffffff16565b6108f1565b8160006001811015156108eb57fe5b60200201515b82600060018110151561090057fe5b60200201818152505082600060018110151561091857fe5b602002015190505b81600060018110151561092f57fe5b6020020151811115156109775761095c88888888600401600086815260200190815260200160002061067b565b61097060018261050c90919063ffffffff16565b9050610920565b5050505050505050565b600080600080915083851890505b6000811415156109cc576109ad60018361050c90919063ffffffff16565b91506109c36001826109d790919063ffffffff16565b8116905061098f565b819250505092915050565b60008282111515156109e557fe5b818303905092915050565b6080604051908101604052806000815260200160008019168152602001600015158152602001600081525090565b61400060405190810160405280610200905b6000815260200190600190039081610a305790505090565b6020604051908101604052806001905b6000815260200190600190039081610a585790505090565b61400060405190810160405280610200905b6000801916815260200190600190039081610a8257905050905600a165627a7a7230582039693c39698aedf4778be4c855558deb0dc575fa58af646a2ae3201a208eeab50029",
  "source": "pragma solidity 0.4.21;\n\nimport \"zeppelin-solidity/contracts/math/SafeMath.sol\";\n//import \"https://github.com/OpenZeppelin/zeppelin-solidity/contracts/math/SafeMath.sol\";\n\ncontract BKTree {\n\t\n\tusing SafeMath for uint;\n\t\n\tuint private _threshold;\n\tNode private _root;\n\n\tstruct Node {\n\t\tuint value;\n\t\tbytes32 ipfs; \n\t\tbool completed;\n\t\tuint child_count;\n\t\tmapping (uint => Node) children;\n\t}\n\t\n\t//https://www.reddit.com/r/ethdev/comments/6lbmhy/a_practical_guide_to_cheap_ipfs_hash_storage_in/\n\tfunction BKTree(uint root, bytes32 data, uint threshold) public {\n\t\t_threshold = threshold;\n\t\t_root = Node({value:root, ipfs:data, completed:false, child_count:0});\n\t}\n//look into whether path is a memory variable because if it is, path.length shouldn't exist and remix is fucking up\n\tfunction addNode(uint id, uint dist, bytes32 data, uint[] _path) public {\n\t\tNode memory newNode = Node({value:id, ipfs:data, completed:false, child_count:0});\n\t\tNode storage curNode = _root;\n\t\tfor(uint i = 0x0; i < _path.length; i = i.add(1)){\n\t\t\tcurNode = curNode.children[_path[i]];\n\t\t}\n\t\trequire(curNode.children[dist].ipfs == 0x0);\n\t\tcurNode.child_count = curNode.child_count.add(1);\n\t\tcurNode.children[dist] = newNode;\n\t}\n\n\tfunction markCompleted(uint id, uint[] path) public {\n\t\tNode storage curNode = _root;\n\t\tfor(uint i = 0x0; i < path.length; i = i.add(1)){\n\t\t\tcurNode = curNode.children[path[i]];\n\t\t}\n\t\trequire(curNode.value == id);\n\t\tcurNode.completed = true;\n\t}\n\t\n\tfunction findPath(uint[1] memory id) public view returns(uint[512] memory, uint[1] memory) {\n\t    uint[512] memory path;\n\t    uint[1] memory pathlen;\n\t    pathlen[0] = 0;\n\t    return _traverseAddPath(id, pathlen, path, _root);\n\t    \n\t}\n\n\tfunction searchNode(uint[1] memory id) public view returns (uint[1] memory, bytes32[512] memory) {\n\t\tbytes32[512] memory candidates;\n\t\tuint[1] memory candidateCount;\n        \n\t\t_getPathCandidates(id, candidateCount, candidates, _root);\n\t\treturn (candidateCount, candidates);\n\t}\n\n\tfunction _getPathCandidates(uint[1] memory id, uint[1] memory candidateCount, bytes32[512] memory candidates, Node storage node) private view {\n\t\tuint[1] memory hamdist;\n\t\thamdist[0] = _hammingDistance(node.value, id[0]);\n\t\tif(hamdist[0] >= hamdist[0].sub(_threshold) && hamdist[0] <= hamdist[0].add(_threshold)){\n    \t\tcandidateCount[0] = candidateCount[0].add(1);\n    \t    candidates[candidateCount[0]] = node.ipfs;\n\t\t}\n\t    uint[1] memory mindist;\n\t    mindist[0] = hamdist[0].sub(_threshold);\n\t    mindist[0] = mindist[0] >= 0 ? mindist[0] : 0;\n\t    \n\t    uint[1] memory maxdist;\n\t    maxdist[0] = hamdist[0].add(_threshold);\n\t    maxdist[0] = maxdist[0] < node.child_count ? maxdist[0] : node.child_count.sub(1);\n\t    \n\t\tfor(uint i = mindist[0]; i <= maxdist[0]; i = i.add(1)){\n\t\t\t_getPathCandidates(id, candidateCount, candidates, node.children[i]);\n\t\t}\n\t}\n\n\tfunction _traverseAddPath(uint[1] memory id, uint[1] memory pathlen, uint[512] memory path, Node storage node) internal view returns (uint[512] memory, uint[1] memory) {\n\t    uint[1] memory hamdist;\n\t\thamdist[0] = _hammingDistance(node.value, id[0]);\n\t\tif(node.children[hamdist[0]].value != 0) { //assuming no zero-value, needs updating, but unlikely edge-case\n\t\t    pathlen[0] = pathlen[0].add(1);\n\t\t    path[pathlen[0]] = hamdist[0];\n\t\t\treturn _traverseAddPath(id, pathlen, path, node.children[hamdist[0]]);\n\t\t} else {\n\t\t\treturn (path, hamdist);\n\t\t}\n\t}\n\n\tfunction _hammingDistance(uint x, uint y) internal pure returns (uint) {\n\t\tuint dist = 0x0;\n\t\tuint val = x ^ y;\n\t\twhile(val != 0x0) {\n\t\t\tdist = dist.add(1);\n\t\t\tval = val & (val.sub(1));\n\t\t}\n\t\treturn dist;\n\t}\n\n\t/*\n\tfunction _rshift(uint aInt, uint n) internal returns (uint) {\n\t\treturn aInt.mul(2 ** n);\n\t}\n\n\tfunction _lshift(uint aInt, uint n) internal returns (uint) {\n\t\treturn aInt.div(2 ** n);\n\t}\n\t*/\n}\n",
  "sourcePath": "/home/collin/dev/hackathons/04142018/contracts/BKTree.sol",
  "compiler": {
    "name": "solc",
    "version": "0.4.21+commit.dfe3193c.Emscripten.clang"
  },
  "schemaVersion": "2.0.0",
  "updatedAt": "2018-04-13T01:39:00.287Z"
}