{
  "contractName": "BKTree",
  "abi": [
    {
      "inputs": [
        {
          "name": "root",
          "type": "uint256"
        },
        {
          "name": "data",
          "type": "bytes32"
        },
        {
          "name": "threshold",
          "type": "uint256"
        }
      ],
      "payable": false,
      "stateMutability": "nonpayable",
      "type": "constructor"
    },
    {
      "constant": false,
      "inputs": [
        {
          "name": "id",
          "type": "uint256"
        },
        {
          "name": "dist",
          "type": "uint256"
        },
        {
          "name": "data",
          "type": "bytes32"
        },
        {
          "name": "_path",
          "type": "uint256[]"
        }
      ],
      "name": "addNode",
      "outputs": [],
      "payable": false,
      "stateMutability": "nonpayable",
      "type": "function"
    },
    {
      "constant": false,
      "inputs": [
        {
          "name": "id",
          "type": "uint256"
        },
        {
          "name": "path",
          "type": "uint256[]"
        }
      ],
      "name": "markCompleted",
      "outputs": [],
      "payable": false,
      "stateMutability": "nonpayable",
      "type": "function"
    },
    {
      "constant": true,
      "inputs": [
        {
          "name": "id",
          "type": "uint256[1]"
        }
      ],
      "name": "findPath",
      "outputs": [
        {
          "name": "",
          "type": "uint256[512]"
        },
        {
          "name": "",
          "type": "uint256[1]"
        },
        {
          "name": "",
          "type": "uint256[1]"
        }
      ],
      "payable": false,
      "stateMutability": "view",
      "type": "function"
    },
    {
      "constant": true,
      "inputs": [
        {
          "name": "id",
          "type": "uint256[1]"
        }
      ],
      "name": "searchNode",
      "outputs": [
        {
          "name": "",
          "type": "uint256[1]"
        },
        {
          "name": "",
          "type": "bytes32[512]"
        }
      ],
      "payable": false,
      "stateMutability": "view",
      "type": "function"
    }
  ],
  "bytecode": "0x6060604052341561000f57600080fd5b604051606080610bdb83398101604052808051906020019091908051906020019091908051906020019091905050806000819055506080604051908101604052808481526020018360001916815260200160001515815260200160008152506001600082015181600001556020820151816001019060001916905560408201518160020160006101000a81548160ff02191690831515021790555060608201518160030155905050505050610b12806100c96000396000f300606060405260043610610062576000357c0100000000000000000000000000000000000000000000000000000000900463ffffffff1680634d96f0501461006757806354400d6c146100e05780635e6bc487146101c157806398ad865314610224575b600080fd5b341561007257600080fd5b6100de600480803590602001909190803590602001909190803560001916906020019091908035906020019082018035906020019080806020026020016040519081016040528093929190818152602001838360200280828437820191505050505050919050506102d6565b005b34156100eb57600080fd5b6101246004808060200190600180602002604051908101604052809291908260016020028082843782019150505050509190505061041c565b604051808461020060200280838360005b83811015610150578082015181840152602081019050610135565b5050505090500183600160200280838360005b8381101561017e578082015181840152602081019050610163565b5050505090500182600160200280838360005b838110156101ac578082015181840152602081019050610191565b50505050905001935050505060405180910390f35b34156101cc57600080fd5b61022260048080359060200190919080359060200190820180359060200190808060200260200160405190810160405280939291908181526020018383602002808284378201915050505050509190505061047a565b005b341561022f57600080fd5b6102686004808060200190600180602002604051908101604052809291908260016020028082843782019150505050509190505061050d565b6040518083600160200280838360005b83811015610293578082015181840152602081019050610278565b505050509050018261020060200280838360005b838110156102c25780820151818401526020810190506102a7565b505050509050019250505060405180910390f35b6102de610a39565b600080608060405190810160405280888152602001866000191681526020016000151581526020016000815250925060019150600090505b835181101561036857816004016000858381518110151561033357fe5b906020019060200201518152602001908152602001600020915061036160018261054790919063ffffffff16565b9050610316565b6000600102826004016000888152602001908152602001600020600101546000191614151561039657600080fd5b6103ae6001836003015461054790919063ffffffff16565b826003018190555082826004016000888152602001908152602001600020600082015181600001556020820151816001019060001916905560408201518160020160006101000a81548160ff0219169083151502179055506060820151816003015590505050505050505050565b610424610a67565b61042c610a91565b610434610a91565b61043c610a67565b610444610a91565b600081600060018110151561045557fe5b60200201818152505061046b8682846001610565565b94509450945050509193909250565b60008060019150600090505b82518110156104d85781600401600084838151811015156104a357fe5b90602001906020020151815260200190815260200160002091506104d160018261054790919063ffffffff16565b9050610486565b8382600001541415156104ea57600080fd5b60018260020160006101000a81548160ff02191690831515021790555050505050565b610515610a91565b61051d610ab9565b610525610ab9565b61052d610a91565b61053a85828460016106c4565b8082935093505050915091565b600080828401905083811015151561055b57fe5b8091505092915050565b61056d610a67565b610575610a91565b61057d610a91565b610585610a91565b6105a6856000015489600060018110151561059c57fe5b60200201516109ca565b8160006001811015156105b557fe5b60200201818152505060008560040160008360006001811015156105d557fe5b60200201518152602001908152602001600020600001541415156106af5761061a600188600060018110151561060757fe5b602002015161054790919063ffffffff16565b87600060018110151561062957fe5b60200201818152505080600060018110151561064157fe5b60200201518688600060018110151561065657fe5b60200201516102008110151561066857fe5b6020020181815250506106a488888888600401600086600060018110151561068c57fe5b60200201518152602001908152602001600020610565565b9350935093506106b9565b8587829350935093505b509450945094915050565b6106cc610a91565b6106d4610a91565b6106dc610a91565b60006106ff85600001548960006001811015156106f557fe5b60200201516109ca565b84600060018110151561070e57fe5b60200201818152505061073f60005485600060018110151561072c57fe5b6020020151610a2090919063ffffffff16565b84600060018110151561074e57fe5b60200201511015801561079b575061078460005485600060018110151561077157fe5b602002015161054790919063ffffffff16565b84600060018110151561079357fe5b602002015111155b1561081a576107c760018860006001811015156107b457fe5b602002015161054790919063ffffffff16565b8760006001811015156107d657fe5b6020020181815250508460010154868860006001811015156107f457fe5b60200201516102008110151561080657fe5b602002019060001916908160001916815250505b61084260005485600060018110151561082f57fe5b6020020151610a2090919063ffffffff16565b83600060018110151561085157fe5b602002018181525050600083600060018110151561086b57fe5b6020020151101561087d576000610892565b82600060018110151561088c57fe5b60200201515b8360006001811015156108a157fe5b6020020181815250506108d26000548560006001811015156108bf57fe5b602002015161054790919063ffffffff16565b8260006001811015156108e157fe5b60200201818152505084600301548260006001811015156108fe57fe5b6020020151106109255761092060018660030154610a2090919063ffffffff16565b61093a565b81600060018110151561093457fe5b60200201515b82600060018110151561094957fe5b60200201818152505082600060018110151561096157fe5b602002015190505b81600060018110151561097857fe5b6020020151811115156109c0576109a58888888860040160008681526020019081526020016000206106c4565b6109b960018261054790919063ffffffff16565b9050610969565b5050505050505050565b600080600080915083851890505b600081141515610a15576109f660018361054790919063ffffffff16565b9150610a0c600182610a2090919063ffffffff16565b811690506109d8565b819250505092915050565b6000828211151515610a2e57fe5b818303905092915050565b6080604051908101604052806000815260200160008019168152602001600015158152602001600081525090565b61400060405190810160405280610200905b6000815260200190600190039081610a795790505090565b6020604051908101604052806001905b6000815260200190600190039081610aa15790505090565b61400060405190810160405280610200905b6000801916815260200190600190039081610acb57905050905600a165627a7a723058201ee660bec976b8860554e130131768b398efe5ad28c08a5e37d822b30c91b0ab0029",
  "source": "pragma solidity 0.4.21;\n\nimport \"zeppelin-solidity/contracts/math/SafeMath.sol\";\n//import \"https://github.com/OpenZeppelin/zeppelin-solidity/contracts/math/SafeMath.sol\";\n\ncontract BKTree {\n\t\n\tusing SafeMath for uint;\n\t\n\tuint private _threshold;\n\tNode private _root;\n\n\tstruct Node {\n\t\tuint value;\n\t\tbytes32 ipfs; \n\t\tbool completed;\n\t\tuint child_count;\n\t\tmapping (uint => Node) children;\n\t}\n\t\n\t//https://www.reddit.com/r/ethdev/comments/6lbmhy/a_practical_guide_to_cheap_ipfs_hash_storage_in/\n\tfunction BKTree(uint root, bytes32 data, uint threshold) public {\n\t\t_threshold = threshold;\n\t\t_root = Node({value:root, ipfs:data, completed:false, child_count:0});\n\t}\n//look into whether path is a memory variable because if it is, path.length shouldn't exist and remix is fucking up\n\tfunction addNode(uint id, uint dist, bytes32 data, uint[] _path) public {\n\t\tNode memory newNode = Node({value:id, ipfs:data, completed:false, child_count:0});\n\t\tNode storage curNode = _root;\n\t\tfor(uint i = 0x0; i < _path.length; i = i.add(1)){\n\t\t\tcurNode = curNode.children[_path[i]];\n\t\t}\n\t\trequire(curNode.children[dist].ipfs == 0x0);\n\t\tcurNode.child_count = curNode.child_count.add(1);\n\t\tcurNode.children[dist] = newNode;\n\t}\n\n\tfunction markCompleted(uint id, uint[] path) public {\n\t\tNode storage curNode = _root;\n\t\tfor(uint i = 0x0; i < path.length; i = i.add(1)){\n\t\t\tcurNode = curNode.children[path[i]];\n\t\t}\n\t\trequire(curNode.value == id);\n\t\tcurNode.completed = true;\n\t}\n\t//returns: path, pathlen, dist\n\tfunction findPath(uint[1] memory id) public view returns(uint[512] memory, uint[1] memory, uint[1] memory) {\n\t    uint[512] memory path;\n\t    uint[1] memory pathlen;\n\t    pathlen[0] = 0x0;\n\t    return _traverseAddPath(id, pathlen, path, _root);\n\t    \n\t}\n\n\tfunction searchNode(uint[1] memory id) public view returns (uint[1] memory, bytes32[512] memory) {\n\t\tbytes32[512] memory candidates;\n\t\tuint[1] memory candidateCount;\n        \n\t\t_getPathCandidates(id, candidateCount, candidates, _root);\n\t\treturn (candidateCount, candidates);\n\t}\n\n\tfunction _getPathCandidates(uint[1] memory id, uint[1] memory candidateCount, bytes32[512] memory candidates, Node storage node) private view {\n\t\tuint[1] memory hamdist;\n\t\thamdist[0] = _hammingDistance(node.value, id[0]);\n\t\tif(hamdist[0] >= hamdist[0].sub(_threshold) && hamdist[0] <= hamdist[0].add(_threshold)){\n    \t\tcandidateCount[0] = candidateCount[0].add(1);\n    \t    candidates[candidateCount[0]] = node.ipfs;\n\t\t}\n\t    uint[1] memory mindist;\n\t    mindist[0] = hamdist[0].sub(_threshold);\n\t    mindist[0] = mindist[0] >= 0 ? mindist[0] : 0;\n\t    \n\t    uint[1] memory maxdist;\n\t    maxdist[0] = hamdist[0].add(_threshold);\n\t    maxdist[0] = maxdist[0] < node.child_count ? maxdist[0] : node.child_count.sub(1);\n\t    \n\t\tfor(uint i = mindist[0]; i <= maxdist[0]; i = i.add(1)){\n\t\t\t_getPathCandidates(id, candidateCount, candidates, node.children[i]);\n\t\t}\n\t}\n\n\tfunction _traverseAddPath(uint[1] memory id, uint[1] memory pathlen, uint[512] memory path, Node storage node) internal view returns (uint[512] memory, uint[1] memory, uint[1] memory) {\n\t    uint[1] memory hamdist;\n\t\thamdist[0] = _hammingDistance(node.value, id[0]);\n\t\tif(node.children[hamdist[0]].value != 0) { //assuming no zero-value, needs updating, but unlikely edge-case\n\t\t    pathlen[0] = pathlen[0].add(1);\n\t\t    path[pathlen[0]] = hamdist[0];\n\t\t\treturn _traverseAddPath(id, pathlen, path, node.children[hamdist[0]]);\n\t\t} else {\n\t\t\treturn (path, pathlen, hamdist);\n\t\t}\n\t}\n\n\tfunction _hammingDistance(uint x, uint y) internal pure returns (uint) {\n\t\tuint dist = 0x0;\n\t\tuint val = x ^ y;\n\t\twhile(val != 0x0) {\n\t\t\tdist = dist.add(1);\n\t\t\tval = val & (val.sub(1));\n\t\t}\n\t\treturn dist;\n\t}\n\n\t/*\n\tfunction _rshift(uint aInt, uint n) internal returns (uint) {\n\t\treturn aInt.mul(2 ** n);\n\t}\n\n\tfunction _lshift(uint aInt, uint n) internal returns (uint) {\n\t\treturn aInt.div(2 ** n);\n\t}\n\t*/\n}\n",
  "sourcePath": "/home/collin/dev/hackathons/04142018/contracts/BKTree.sol",
  "compiler": {
    "name": "solc",
    "version": "0.4.21+commit.dfe3193c.Emscripten.clang"
  },
  "schemaVersion": "2.0.0",
  "updatedAt": "2018-04-13T02:16:41.872Z"
}