{
  "contractName": "CDO",
  "abi": [
    {
      "constant": false,
      "inputs": [],
      "name": "payout",
      "outputs": [],
      "payable": false,
      "stateMutability": "nonpayable",
      "type": "function"
    },
    {
      "constant": true,
      "inputs": [],
      "name": "mezzanine",
      "outputs": [
        {
          "name": "",
          "type": "address"
        }
      ],
      "payable": false,
      "stateMutability": "view",
      "type": "function"
    },
    {
      "constant": true,
      "inputs": [],
      "name": "owner",
      "outputs": [
        {
          "name": "",
          "type": "address"
        }
      ],
      "payable": false,
      "stateMutability": "view",
      "type": "function"
    },
    {
      "constant": true,
      "inputs": [
        {
          "name": "_tokenId",
          "type": "uint256"
        }
      ],
      "name": "getMezzanineTokenOwner",
      "outputs": [
        {
          "name": "",
          "type": "address"
        }
      ],
      "payable": false,
      "stateMutability": "view",
      "type": "function"
    },
    {
      "constant": false,
      "inputs": [
        {
          "name": "_to",
          "type": "address"
        },
        {
          "name": "_amount",
          "type": "uint256"
        }
      ],
      "name": "transfer",
      "outputs": [],
      "payable": false,
      "stateMutability": "nonpayable",
      "type": "function"
    },
    {
      "constant": true,
      "inputs": [
        {
          "name": "_payer",
          "type": "address"
        }
      ],
      "name": "getPayoutBalance",
      "outputs": [
        {
          "name": "",
          "type": "uint256"
        }
      ],
      "payable": false,
      "stateMutability": "view",
      "type": "function"
    },
    {
      "constant": true,
      "inputs": [],
      "name": "valueToken",
      "outputs": [
        {
          "name": "",
          "type": "address"
        }
      ],
      "payable": false,
      "stateMutability": "view",
      "type": "function"
    },
    {
      "constant": true,
      "inputs": [],
      "name": "senior",
      "outputs": [
        {
          "name": "",
          "type": "address"
        }
      ],
      "payable": false,
      "stateMutability": "view",
      "type": "function"
    },
    {
      "constant": true,
      "inputs": [
        {
          "name": "_tokenId",
          "type": "uint256"
        }
      ],
      "name": "getSeniorTokenOwner",
      "outputs": [
        {
          "name": "",
          "type": "address"
        }
      ],
      "payable": false,
      "stateMutability": "view",
      "type": "function"
    },
    {
      "constant": false,
      "inputs": [
        {
          "name": "newOwner",
          "type": "address"
        }
      ],
      "name": "transferOwnership",
      "outputs": [],
      "payable": false,
      "stateMutability": "nonpayable",
      "type": "function"
    },
    {
      "inputs": [
        {
          "name": "_tokenContract",
          "type": "address"
        },
        {
          "name": "_seniorTranche",
          "type": "address"
        },
        {
          "name": "_mezzanineTranche",
          "type": "address"
        }
      ],
      "payable": false,
      "stateMutability": "nonpayable",
      "type": "constructor"
    },
    {
      "anonymous": false,
      "inputs": [
        {
          "indexed": false,
          "name": "flag",
          "type": "uint256"
        },
        {
          "indexed": false,
          "name": "data",
          "type": "uint256"
        }
      ],
      "name": "TestEvent",
      "type": "event"
    },
    {
      "anonymous": false,
      "inputs": [
        {
          "indexed": false,
          "name": "flag",
          "type": "uint256"
        },
        {
          "indexed": false,
          "name": "addr",
          "type": "address"
        }
      ],
      "name": "TestEventAddr",
      "type": "event"
    },
    {
      "anonymous": false,
      "inputs": [
        {
          "indexed": true,
          "name": "previousOwner",
          "type": "address"
        },
        {
          "indexed": true,
          "name": "newOwner",
          "type": "address"
        }
      ],
      "name": "OwnershipTransferred",
      "type": "event"
    }
  ],
  "bytecode": "0x6060604052341561000f57600080fd5b604051606080611a3183398101604052808051906020019091908051906020019091908051906020019091905050336000806101000a81548173ffffffffffffffffffffffffffffffffffffffff021916908373ffffffffffffffffffffffffffffffffffffffff16021790555082600160006101000a81548173ffffffffffffffffffffffffffffffffffffffff021916908373ffffffffffffffffffffffffffffffffffffffff16021790555081600260006101000a81548173ffffffffffffffffffffffffffffffffffffffff021916908373ffffffffffffffffffffffffffffffffffffffff16021790555080600360006101000a81548173ffffffffffffffffffffffffffffffffffffffff021916908373ffffffffffffffffffffffffffffffffffffffff1602179055505050506118df806101526000396000f3006060604052600436106100a4576000357c0100000000000000000000000000000000000000000000000000000000900463ffffffff16806363bd1d4a146100a957806381624993146100be5780638da5cb5b1461011357806391e068b514610168578063a9059cbb146101cb578063e6f574d21461020d578063effff82f1461025a578063f15086e5146102af578063f1abc78814610304578063f2fde38b14610367575b600080fd5b34156100b457600080fd5b6100bc6103a0565b005b34156100c957600080fd5b6100d1610d2d565b604051808273ffffffffffffffffffffffffffffffffffffffff1673ffffffffffffffffffffffffffffffffffffffff16815260200191505060405180910390f35b341561011e57600080fd5b610126610d53565b604051808273ffffffffffffffffffffffffffffffffffffffff1673ffffffffffffffffffffffffffffffffffffffff16815260200191505060405180910390f35b341561017357600080fd5b6101896004808035906020019091905050610d78565b604051808273ffffffffffffffffffffffffffffffffffffffff1673ffffffffffffffffffffffffffffffffffffffff16815260200191505060405180910390f35b34156101d657600080fd5b61020b600480803573ffffffffffffffffffffffffffffffffffffffff16906020019091908035906020019091905050610e3a565b005b341561021857600080fd5b610244600480803573ffffffffffffffffffffffffffffffffffffffff16906020019091905050610f82565b6040518082815260200191505060405180910390f35b341561026557600080fd5b61026d61106b565b604051808273ffffffffffffffffffffffffffffffffffffffff1673ffffffffffffffffffffffffffffffffffffffff16815260200191505060405180910390f35b34156102ba57600080fd5b6102c2611091565b604051808273ffffffffffffffffffffffffffffffffffffffff1673ffffffffffffffffffffffffffffffffffffffff16815260200191505060405180910390f35b341561030f57600080fd5b61032560048080359060200190919050506110b7565b604051808273ffffffffffffffffffffffffffffffffffffffff1673ffffffffffffffffffffffffffffffffffffffff16815260200191505060405180910390f35b341561037257600080fd5b61039e600480803573ffffffffffffffffffffffffffffffffffffffff16906020019091905050611179565b005b6000809050600260009054906101000a900473ffffffffffffffffffffffffffffffffffffffff1673ffffffffffffffffffffffffffffffffffffffff166395cd5d1c6000604051602001526040518163ffffffff167c0100000000000000000000000000000000000000000000000000000000028152600401602060405180830381600087803b151561043357600080fd5b6102c65a03f1151561044457600080fd5b50505060405180519050600260009054906101000a900473ffffffffffffffffffffffffffffffffffffffff1673ffffffffffffffffffffffffffffffffffffffff1663454f7b8f6000604051602001526040518163ffffffff167c0100000000000000000000000000000000000000000000000000000000028152600401602060405180830381600087803b15156104dc57600080fd5b6102c65a03f115156104ed57600080fd5b505050604051805190501080156106535750600260009054906101000a900473ffffffffffffffffffffffffffffffffffffffff1673ffffffffffffffffffffffffffffffffffffffff166391aacbce6000604051602001526040518163ffffffff167c0100000000000000000000000000000000000000000000000000000000028152600401602060405180830381600087803b151561058d57600080fd5b6102c65a03f1151561059e57600080fd5b50505060405180519050600260009054906101000a900473ffffffffffffffffffffffffffffffffffffffff1673ffffffffffffffffffffffffffffffffffffffff166318160ddd6000604051602001526040518163ffffffff167c0100000000000000000000000000000000000000000000000000000000028152600401602060405180830381600087803b151561063657600080fd5b6102c65a03f1151561064757600080fd5b50505060405180519050145b1561069857610695610686600260009054906101000a900473ffffffffffffffffffffffffffffffffffffffff166112ce565b8261187a90919063ffffffff16565b90505b600260009054906101000a900473ffffffffffffffffffffffffffffffffffffffff1673ffffffffffffffffffffffffffffffffffffffff166395cd5d1c6000604051602001526040518163ffffffff167c0100000000000000000000000000000000000000000000000000000000028152600401602060405180830381600087803b151561072657600080fd5b6102c65a03f1151561073757600080fd5b50505060405180519050600260009054906101000a900473ffffffffffffffffffffffffffffffffffffffff1673ffffffffffffffffffffffffffffffffffffffff1663454f7b8f6000604051602001526040518163ffffffff167c0100000000000000000000000000000000000000000000000000000000028152600401602060405180830381600087803b15156107cf57600080fd5b6102c65a03f115156107e057600080fd5b505050604051805190501480156109465750600360009054906101000a900473ffffffffffffffffffffffffffffffffffffffff1673ffffffffffffffffffffffffffffffffffffffff166395cd5d1c6000604051602001526040518163ffffffff167c0100000000000000000000000000000000000000000000000000000000028152600401602060405180830381600087803b151561088057600080fd5b6102c65a03f1151561089157600080fd5b50505060405180519050600360009054906101000a900473ffffffffffffffffffffffffffffffffffffffff1673ffffffffffffffffffffffffffffffffffffffff1663454f7b8f6000604051602001526040518163ffffffff167c0100000000000000000000000000000000000000000000000000000000028152600401602060405180830381600087803b151561092957600080fd5b6102c65a03f1151561093a57600080fd5b50505060405180519050105b8015610aa15750600260009054906101000a900473ffffffffffffffffffffffffffffffffffffffff1673ffffffffffffffffffffffffffffffffffffffff166391aacbce6000604051602001526040518163ffffffff167c0100000000000000000000000000000000000000000000000000000000028152600401602060405180830381600087803b15156109db57600080fd5b6102c65a03f115156109ec57600080fd5b50505060405180519050600260009054906101000a900473ffffffffffffffffffffffffffffffffffffffff1673ffffffffffffffffffffffffffffffffffffffff166318160ddd6000604051602001526040518163ffffffff167c0100000000000000000000000000000000000000000000000000000000028152600401602060405180830381600087803b1515610a8457600080fd5b6102c65a03f11515610a9557600080fd5b50505060405180519050145b8015610bfc5750600360009054906101000a900473ffffffffffffffffffffffffffffffffffffffff1673ffffffffffffffffffffffffffffffffffffffff166391aacbce6000604051602001526040518163ffffffff167c0100000000000000000000000000000000000000000000000000000000028152600401602060405180830381600087803b1515610b3657600080fd5b6102c65a03f11515610b4757600080fd5b50505060405180519050600360009054906101000a900473ffffffffffffffffffffffffffffffffffffffff1673ffffffffffffffffffffffffffffffffffffffff166318160ddd6000604051602001526040518163ffffffff167c0100000000000000000000000000000000000000000000000000000000028152600401602060405180830381600087803b1515610bdf57600080fd5b6102c65a03f11515610bf057600080fd5b50505060405180519050145b15610c4157610c3e610c2f600360009054906101000a900473ffffffffffffffffffffffffffffffffffffffff166112ce565b8261187a90919063ffffffff16565b90505b600160009054906101000a900473ffffffffffffffffffffffffffffffffffffffff1673ffffffffffffffffffffffffffffffffffffffff1663a9059cbb33836000604051602001526040518363ffffffff167c0100000000000000000000000000000000000000000000000000000000028152600401808373ffffffffffffffffffffffffffffffffffffffff1673ffffffffffffffffffffffffffffffffffffffff16815260200182815260200192505050602060405180830381600087803b1515610d0e57600080fd5b6102c65a03f11515610d1f57600080fd5b505050604051805190505050565b600360009054906101000a900473ffffffffffffffffffffffffffffffffffffffff1681565b6000809054906101000a900473ffffffffffffffffffffffffffffffffffffffff1681565b600080600360009054906101000a900473ffffffffffffffffffffffffffffffffffffffff1673ffffffffffffffffffffffffffffffffffffffff16636352211e846000604051602001526040518263ffffffff167c010000000000000000000000000000000000000000000000000000000002815260040180828152602001915050602060405180830381600087803b1515610e1457600080fd5b6102c65a03f11515610e2557600080fd5b50505060405180519050905080915050919050565b6000809054906101000a900473ffffffffffffffffffffffffffffffffffffffff1673ffffffffffffffffffffffffffffffffffffffff163373ffffffffffffffffffffffffffffffffffffffff16141515610e9557600080fd5b600160009054906101000a900473ffffffffffffffffffffffffffffffffffffffff1673ffffffffffffffffffffffffffffffffffffffff1663a9059cbb83836000604051602001526040518363ffffffff167c0100000000000000000000000000000000000000000000000000000000028152600401808373ffffffffffffffffffffffffffffffffffffffff1673ffffffffffffffffffffffffffffffffffffffff16815260200182815260200192505050602060405180830381600087803b1515610f6257600080fd5b6102c65a03f11515610f7357600080fd5b50505060405180519050505050565b6000600160009054906101000a900473ffffffffffffffffffffffffffffffffffffffff1673ffffffffffffffffffffffffffffffffffffffff166370a08231836000604051602001526040518263ffffffff167c0100000000000000000000000000000000000000000000000000000000028152600401808273ffffffffffffffffffffffffffffffffffffffff1673ffffffffffffffffffffffffffffffffffffffff168152602001915050602060405180830381600087803b151561104957600080fd5b6102c65a03f1151561105a57600080fd5b505050604051805190509050919050565b600160009054906101000a900473ffffffffffffffffffffffffffffffffffffffff1681565b600260009054906101000a900473ffffffffffffffffffffffffffffffffffffffff1681565b600080600260009054906101000a900473ffffffffffffffffffffffffffffffffffffffff1673ffffffffffffffffffffffffffffffffffffffff16636352211e846000604051602001526040518263ffffffff167c010000000000000000000000000000000000000000000000000000000002815260040180828152602001915050602060405180830381600087803b151561115357600080fd5b6102c65a03f1151561116457600080fd5b50505060405180519050905080915050919050565b6000809054906101000a900473ffffffffffffffffffffffffffffffffffffffff1673ffffffffffffffffffffffffffffffffffffffff163373ffffffffffffffffffffffffffffffffffffffff161415156111d457600080fd5b600073ffffffffffffffffffffffffffffffffffffffff168173ffffffffffffffffffffffffffffffffffffffff161415151561121057600080fd5b8073ffffffffffffffffffffffffffffffffffffffff166000809054906101000a900473ffffffffffffffffffffffffffffffffffffffff1673ffffffffffffffffffffffffffffffffffffffff167f8be0079c531659141344cd1fd0a4f28419497f9722a3daafe3b4186f6b6457e060405160405180910390a3806000806101000a81548173ffffffffffffffffffffffffffffffffffffffff021916908373ffffffffffffffffffffffffffffffffffffffff16021790555050565b60008060008060008060008060008973ffffffffffffffffffffffffffffffffffffffff1663454f7b8f6000604051602001526040518163ffffffff167c0100000000000000000000000000000000000000000000000000000000028152600401602060405180830381600087803b151561134857600080fd5b6102c65a03f1151561135957600080fd5b505050604051805190509650600160009054906101000a900473ffffffffffffffffffffffffffffffffffffffff1673ffffffffffffffffffffffffffffffffffffffff166370a08231306000604051602001526040518263ffffffff167c0100000000000000000000000000000000000000000000000000000000028152600401808273ffffffffffffffffffffffffffffffffffffffff1673ffffffffffffffffffffffffffffffffffffffff168152602001915050602060405180830381600087803b151561142a57600080fd5b6102c65a03f1151561143b57600080fd5b5050506040518051905095508587018a73ffffffffffffffffffffffffffffffffffffffff166395cd5d1c6000604051602001526040518163ffffffff167c0100000000000000000000000000000000000000000000000000000000028152600401602060405180830381600087803b15156114b657600080fd5b6102c65a03f115156114c757600080fd5b505050604051805190501015611565578973ffffffffffffffffffffffffffffffffffffffff1663b2ca08cd6000604051602001526040518163ffffffff167c0100000000000000000000000000000000000000000000000000000000028152600401602060405180830381600087803b151561154357600080fd5b6102c65a03f1151561155457600080fd5b505050604051805190509450611613565b6116108a73ffffffffffffffffffffffffffffffffffffffff166391aacbce6000604051602001526040518163ffffffff167c0100000000000000000000000000000000000000000000000000000000028152600401602060405180830381600087803b15156115d457600080fd5b6102c65a03f115156115e557600080fd5b50505060405180519050611602898961187a90919063ffffffff16565b61189890919063ffffffff16565b94505b600093508973ffffffffffffffffffffffffffffffffffffffff166370a08231336000604051602001526040518263ffffffff167c0100000000000000000000000000000000000000000000000000000000028152600401808273ffffffffffffffffffffffffffffffffffffffff1673ffffffffffffffffffffffffffffffffffffffff168152602001915050602060405180830381600087803b15156116ba57600080fd5b6102c65a03f115156116cb57600080fd5b505050604051805190509250600097505b8288101561186a578973ffffffffffffffffffffffffffffffffffffffff16632f745c59338a6000604051602001526040518363ffffffff167c0100000000000000000000000000000000000000000000000000000000028152600401808373ffffffffffffffffffffffffffffffffffffffff1673ffffffffffffffffffffffffffffffffffffffff16815260200182815260200192505050602060405180830381600087803b151561178f57600080fd5b6102c65a03f115156117a057600080fd5b5050506040518051905091508973ffffffffffffffffffffffffffffffffffffffff1663e936d79683876000604051602001526040518363ffffffff167c01000000000000000000000000000000000000000000000000000000000281526004018083815260200182815260200192505050602060405180830381600087803b151561182b57600080fd5b6102c65a03f1151561183c57600080fd5b50505060405180519050905061185b818561187a90919063ffffffff16565b935087806001019850506116dc565b8398505050505050505050919050565b600080828401905083811015151561188e57fe5b8091505092915050565b60008082848115156118a657fe5b04905080915050929150505600a165627a7a7230582065897284c55b5a971f396b8ebd389d644e5b8adc0db85103da99d021d4f868100029",
  "source": "/*\n\n  Copyright 2017 Dharma Labs Inc.\n\n  Licensed under the Apache License, Version 2.0 (the \"License\");\n  you may not use this file except in compliance with the License.\n  You may obtain a copy of the License at\n\n    http://www.apache.org/licenses/LICENSE-2.0\n\n  Unless required by applicable law or agreed to in writing, software\n  distributed under the License is distributed on an \"AS IS\" BASIS,\n  WITHOUT WARRANTIES OR CONDITIONS OF ANY KIND, either express or implied.\n  See the License for the specific language governing permissions and\n  limitations under the License.\n\n*/\n\npragma solidity 0.4.18;\n\nimport \"./Tranche.sol\";\n//import \"../test/dummy_tokens/DummyToken.sol\";\nimport \"NonFungibleToken/contracts/NonFungibleToken.sol\";\nimport \"zeppelin-solidity/contracts/math/SafeMath.sol\";\nimport \"zeppelin-solidity/contracts/ownership/Ownable.sol\";\nimport \"zeppelin-solidity/contracts/token/ERC20/ERC20.sol\";\n//import \"zeppelin-solidity/contracts/token/ERC20/MintableToken.sol\";\n\n\ncontract CDO is Ownable{\n    using SafeMath for uint;\n\n    ERC20 public valueToken;\n\n    Tranche public senior;\n    Tranche public mezzanine;\n\n    event TestEvent(uint flag, uint data);\n    event TestEventAddr(uint flag, address addr);\n\n    function CDO (\n        address _tokenContract,\n        address _seniorTranche,\n        address _mezzanineTranche\n    )\n        public\n    {\n        valueToken = ERC20(_tokenContract);\n\n        //IMPORTANT: Transfer tranche ownership to the address of this contract!!\n        //https://github.com/OpenZeppelin/zeppelin-solidity/blob/master/contracts/ownership/Ownable.sol\n        senior = Tranche(_seniorTranche);\n        mezzanine = Tranche(_mezzanineTranche);\n    }\n\n    function getSeniorTokenOwner(uint _tokenId) public view returns(address)\n    {\n        address tokenOwner = senior.ownerOf(_tokenId);\n        return tokenOwner;\n    }\n\n    function getMezzanineTokenOwner(uint _tokenId) public view returns(address)\n    {\n        address tokenOwner = mezzanine.ownerOf(_tokenId);\n        return tokenOwner;\n    }\n\n    function getPayoutBalance(address _payer) public view returns(uint) {\n        return valueToken.balanceOf(_payer);\n    }\n    \n\n    function payout() public {\n        uint addedPayout = 0;\n        if(\n            senior.totalPayout() < senior.expectedPayoutTotal() && \n            senior.totalSupply() == senior.trancheLimit()\n        )\n        {\n            addedPayout = addedPayout.add(_payout(senior));\n        }\n        if(\n            senior.totalPayout() == senior.expectedPayoutTotal() && \n            mezzanine.totalPayout() < mezzanine.expectedPayoutTotal() && \n            senior.totalSupply() == senior.trancheLimit() &&\n            mezzanine.totalSupply() == mezzanine.trancheLimit()\n        )\n        {\n            addedPayout = addedPayout.add(_payout(mezzanine));\n        }\n\n        //THIS LINE CAUSES THE PROBLEM\n        valueToken.transfer(msg.sender, addedPayout);\n    }\n\n    function _payout(Tranche tranche) internal returns(uint){\n        uint i; //for me to loop on\n        uint amountPaid = tranche.totalPayout();\n\n        uint tokensAvailable = valueToken.balanceOf(address(this));\n\n        //following code is not safe for division, using if-statement instead\n        //uint payoutAvailable = (tranche.expectedPayoutTotal() < amountPaid + tokensAvailable) ? tranche.expectedPayoutTotal() : tokensAvailable;\n        //uint payoutAvailablePerToken = payoutAvailable.div(tranche.trancheLimit());\n        uint payoutAvailablePerTrancheToken;\n        //this is much safer because it will guarantee a full payment on a fractional edge-case...\n        // ... so long as the balance can support the full amount.\n        if(tranche.expectedPayoutTotal() < amountPaid + tokensAvailable) {\n            payoutAvailablePerTrancheToken = tranche.trancheValue();\n        } else {\n            //remember, division rounds down, but we dont have to worry about that\n            payoutAvailablePerTrancheToken = tokensAvailable.add(amountPaid).div(tranche.trancheLimit());\n        }\n\n        uint addedPayout = 0;\n\n        //NOPE! I can't do this... /bonk ... dynamic types cannot be passed around.\n        //uint[] ownerTokens = tranche.getOwnerTokens(msg.sender);\n        //Do this instead...\n        uint ownerBalance = tranche.balanceOf(msg.sender);\n       \n        for (i = 0; i < ownerBalance; i++) {\n            uint _tokenId = tranche.tokenOfOwnerByIndex(msg.sender, i);\n            uint addedValue = tranche.matchPayout(_tokenId, payoutAvailablePerTrancheToken);\n            addedPayout = addedPayout.add(addedValue);\n        } \n        return addedPayout;\n    }\n\n    function transfer(address _to, uint _amount) public onlyOwner {\n        valueToken.transfer(_to, _amount);\n    }\n\n}\n",
  "sourcePath": "/home/ccusce/dev/dharma_test/collincusce_interview/contracts/examples/CDO.sol",
  "compiler": {
    "name": "solc",
    "version": "0.4.18+commit.9cf6e910.Emscripten.clang"
  },
  "schemaVersion": "1.0.1",
  "updatedAt": "2018-03-13T14:05:34.077Z"
}