{
  "contractName": "MockDebtRegistry",
  "abi": [
    {
      "constant": true,
      "inputs": [
        {
          "name": "functionName",
          "type": "string"
        },
        {
          "name": "argsSignature",
          "type": "bytes32"
        }
      ],
      "name": "getMockReturnValue",
      "outputs": [
        {
          "name": "_mockReturnValue",
          "type": "bytes32"
        }
      ],
      "payable": false,
      "stateMutability": "view",
      "type": "function"
    },
    {
      "constant": false,
      "inputs": [
        {
          "name": "issuanceHash",
          "type": "bytes32"
        },
        {
          "name": "termsContract",
          "type": "address"
        }
      ],
      "name": "mockGetTermsContractReturnValueFor",
      "outputs": [],
      "payable": false,
      "stateMutability": "nonpayable",
      "type": "function"
    },
    {
      "constant": true,
      "inputs": [
        {
          "name": "_version",
          "type": "address"
        },
        {
          "name": "_beneficiary",
          "type": "address"
        },
        {
          "name": "_debtor",
          "type": "address"
        },
        {
          "name": "_underwriter",
          "type": "address"
        },
        {
          "name": "_underwriterRiskRating",
          "type": "uint256"
        },
        {
          "name": "_termsContract",
          "type": "address"
        },
        {
          "name": "_termsContractParameters",
          "type": "bytes32"
        },
        {
          "name": "_salt",
          "type": "uint256"
        }
      ],
      "name": "wasInsertCalledWith",
      "outputs": [
        {
          "name": "_wasCalled",
          "type": "bool"
        }
      ],
      "payable": false,
      "stateMutability": "view",
      "type": "function"
    },
    {
      "constant": false,
      "inputs": [
        {
          "name": "issuanceHash",
          "type": "bytes32"
        },
        {
          "name": "newBeneficiary",
          "type": "address"
        }
      ],
      "name": "modifyBeneficiary",
      "outputs": [],
      "payable": false,
      "stateMutability": "nonpayable",
      "type": "function"
    },
    {
      "constant": true,
      "inputs": [
        {
          "name": "issuanceHash",
          "type": "bytes32"
        }
      ],
      "name": "getTerms",
      "outputs": [
        {
          "name": "_termsContract",
          "type": "address"
        },
        {
          "name": "_termsContractParameters",
          "type": "bytes32"
        }
      ],
      "payable": false,
      "stateMutability": "view",
      "type": "function"
    },
    {
      "constant": false,
      "inputs": [
        {
          "name": "functionName",
          "type": "string"
        },
        {
          "name": "argsSignature",
          "type": "bytes32"
        },
        {
          "name": "returnValue",
          "type": "bytes32"
        }
      ],
      "name": "mockReturnValue",
      "outputs": [],
      "payable": false,
      "stateMutability": "nonpayable",
      "type": "function"
    },
    {
      "constant": false,
      "inputs": [
        {
          "name": "issuanceHash",
          "type": "bytes32"
        }
      ],
      "name": "mockInsertReturnValue",
      "outputs": [],
      "payable": false,
      "stateMutability": "nonpayable",
      "type": "function"
    },
    {
      "constant": false,
      "inputs": [
        {
          "name": "issuanceHash",
          "type": "bytes32"
        },
        {
          "name": "termsContract",
          "type": "address"
        },
        {
          "name": "termsContractParameters",
          "type": "bytes32"
        }
      ],
      "name": "mockGetTermsReturnValueFor",
      "outputs": [],
      "payable": false,
      "stateMutability": "nonpayable",
      "type": "function"
    },
    {
      "constant": true,
      "inputs": [
        {
          "name": "issuanceHash",
          "type": "bytes32"
        }
      ],
      "name": "getBeneficiary",
      "outputs": [
        {
          "name": "_mockBeneficiary",
          "type": "address"
        }
      ],
      "payable": false,
      "stateMutability": "view",
      "type": "function"
    },
    {
      "constant": false,
      "inputs": [
        {
          "name": "_version",
          "type": "address"
        },
        {
          "name": "_beneficiary",
          "type": "address"
        },
        {
          "name": "_debtor",
          "type": "address"
        },
        {
          "name": "_underwriter",
          "type": "address"
        },
        {
          "name": "_underwriterRiskRating",
          "type": "uint256"
        },
        {
          "name": "_termsContract",
          "type": "address"
        },
        {
          "name": "_termsContractParameters",
          "type": "bytes32"
        },
        {
          "name": "_salt",
          "type": "uint256"
        }
      ],
      "name": "insert",
      "outputs": [
        {
          "name": "_issuanceHash",
          "type": "bytes32"
        }
      ],
      "payable": false,
      "stateMutability": "nonpayable",
      "type": "function"
    },
    {
      "constant": false,
      "inputs": [],
      "name": "reset",
      "outputs": [],
      "payable": false,
      "stateMutability": "nonpayable",
      "type": "function"
    },
    {
      "constant": false,
      "inputs": [
        {
          "name": "issuanceHash",
          "type": "bytes32"
        },
        {
          "name": "beneficiary",
          "type": "address"
        }
      ],
      "name": "mockGetBeneficiaryReturnValueFor",
      "outputs": [],
      "payable": false,
      "stateMutability": "nonpayable",
      "type": "function"
    },
    {
      "constant": true,
      "inputs": [
        {
          "name": "issuanceHash",
          "type": "bytes32"
        },
        {
          "name": "newBeneficiary",
          "type": "address"
        }
      ],
      "name": "wasModifyBeneficiaryCalledWith",
      "outputs": [
        {
          "name": "_wasCalled",
          "type": "bool"
        }
      ],
      "payable": false,
      "stateMutability": "view",
      "type": "function"
    },
    {
      "constant": true,
      "inputs": [
        {
          "name": "issuanceHash",
          "type": "bytes32"
        }
      ],
      "name": "getTermsContract",
      "outputs": [
        {
          "name": "_termsContract",
          "type": "address"
        }
      ],
      "payable": false,
      "stateMutability": "view",
      "type": "function"
    }
  ],
  "bytecode": "0x6060604052341561000f57600080fd5b61182b8061001e6000396000f3006060604052600436106100d0576000357c0100000000000000000000000000000000000000000000000000000000900463ffffffff16806313101858146100d557806318d2efef1461015b578063212e5da1146101a15780635969549e1461028d5780636be39bda146102d357806380da20d4146103495780639feff4cc146103c0578063b4045ae9146103e7578063ba20dda41461043a578063cf9df5eb146104a1578063d826f88f14610591578063f0450a5c146105a6578063f6a61896146105ec578063f6f494c91461064a575b600080fd5b34156100e057600080fd5b61013d600480803590602001908201803590602001908080601f01602080910402602001604051908101604052809392919081815260200183838082843782019150505050505091908035600019169060200190919050506106b1565b60405180826000191660001916815260200191505060405180910390f35b341561016657600080fd5b61019f60048080356000191690602001909190803573ffffffffffffffffffffffffffffffffffffffff16906020019091905050610740565b005b34156101ac57600080fd5b610273600480803573ffffffffffffffffffffffffffffffffffffffff1690602001909190803573ffffffffffffffffffffffffffffffffffffffff1690602001909190803573ffffffffffffffffffffffffffffffffffffffff1690602001909190803573ffffffffffffffffffffffffffffffffffffffff1690602001909190803590602001909190803573ffffffffffffffffffffffffffffffffffffffff169060200190919080356000191690602001909190803590602001909190505061079d565b604051808215151515815260200191505060405180910390f35b341561029857600080fd5b6102d160048080356000191690602001909190803573ffffffffffffffffffffffffffffffffffffffff16906020019091905050610968565b005b34156102de57600080fd5b6102f8600480803560001916906020019091905050610a15565b604051808373ffffffffffffffffffffffffffffffffffffffff1673ffffffffffffffffffffffffffffffffffffffff16815260200182600019166000191681526020019250505060405180910390f35b341561035457600080fd5b6103be600480803590602001908201803590602001908080601f016020809104026020016040519081016040528093929190818152602001838380828437820191505050505050919080356000191690602001909190803560001916906020019091905050610aa3565b005b34156103cb57600080fd5b6103e5600480803560001916906020019091905050610bcd565b005b34156103f257600080fd5b61043860048080356000191690602001909190803573ffffffffffffffffffffffffffffffffffffffff1690602001909190803560001916906020019091905050610c14565b005b341561044557600080fd5b61045f600480803560001916906020019091905050610cb2565b604051808273ffffffffffffffffffffffffffffffffffffffff1673ffffffffffffffffffffffffffffffffffffffff16815260200191505060405180910390f35b34156104ac57600080fd5b610573600480803573ffffffffffffffffffffffffffffffffffffffff1690602001909190803573ffffffffffffffffffffffffffffffffffffffff1690602001909190803573ffffffffffffffffffffffffffffffffffffffff1690602001909190803573ffffffffffffffffffffffffffffffffffffffff1690602001909190803590602001909190803573ffffffffffffffffffffffffffffffffffffffff1690602001909190803560001916906020019091908035906020019091905050610cfe565b60405180826000191660001916815260200191505060405180910390f35b341561059c57600080fd5b6105a4610f21565b005b34156105b157600080fd5b6105ea60048080356000191690602001909190803573ffffffffffffffffffffffffffffffffffffffff16906020019091905050611218565b005b34156105f757600080fd5b61063060048080356000191690602001909190803573ffffffffffffffffffffffffffffffffffffffff16906020019091905050611275565b604051808215151515815260200191505060405180910390f35b341561065557600080fd5b61066f60048080356000191690602001909190505061131e565b604051808273ffffffffffffffffffffffffffffffffffffffff1673ffffffffffffffffffffffffffffffffffffffff16815260200191505060405180910390f35b60006001836040518082805190602001908083835b6020831015156106eb57805182526020820191506020810190506020830392506106c6565b6001836020036101000a03801982511681845116808217855250505050505090500191505090815260200160405180910390206000836000191660001916815260200190815260200160002054905092915050565b6107996040805190810160405280601081526020017f6765745465726d73436f6e747261637400000000000000000000000000000000815250838373ffffffffffffffffffffffffffffffffffffffff16600102610aa3565b5050565b600061095a6040805190810160405280600681526020017f696e7365727400000000000000000000000000000000000000000000000000008152508a8a8a8a8a8a8a8a604051808973ffffffffffffffffffffffffffffffffffffffff1673ffffffffffffffffffffffffffffffffffffffff166c010000000000000000000000000281526014018873ffffffffffffffffffffffffffffffffffffffff1673ffffffffffffffffffffffffffffffffffffffff166c010000000000000000000000000281526014018773ffffffffffffffffffffffffffffffffffffffff1673ffffffffffffffffffffffffffffffffffffffff166c010000000000000000000000000281526014018673ffffffffffffffffffffffffffffffffffffffff1673ffffffffffffffffffffffffffffffffffffffff166c010000000000000000000000000281526014018581526020018473ffffffffffffffffffffffffffffffffffffffff1673ffffffffffffffffffffffffffffffffffffffff166c01000000000000000000000000028152601401836000191660001916815260200182815260200198505050505050505050604051809103902061136a565b905098975050505050505050565b610a076040805190810160405280601181526020017f6d6f6469667942656e656669636961727900000000000000000000000000000081525083836040518083600019166000191681526020018273ffffffffffffffffffffffffffffffffffffffff1673ffffffffffffffffffffffffffffffffffffffff166c01000000000000000000000000028152601401925050506040518091039020611406565b610a118282611218565b5050565b600080610a576040805190810160405280601681526020017f6765745465726d735f7465726d73436f6e747261637400000000000000000000815250846106b1565b60019004610a9a6040805190810160405280602081526020017f6765745465726d735f7465726d73436f6e7472616374506172616d6574657273815250856106b1565b91509150915091565b6000836040518082805190602001908083835b602083101515610adb5780518252602082019150602081019050602083039250610ab6565b6001836020036101000a03801982511681845116808217855250505050505090500191505090815260200160405180910390208054806001018281610b209190611736565b916000526020600020900160008490919091509060001916905550806001846040518082805190602001908083835b602083101515610b745780518252602082019150602081019050602083039250610b4f565b6001836020036101000a0380198251168184511680821785525050505050509050019150509081526020016040518091039020600084600019166000191681526020019081526020016000208160001916905550505050565b610c116040805190810160405280600681526020017f696e736572740000000000000000000000000000000000000000000000000000815250600060010283610aa3565b50565b610c6d6040805190810160405280601681526020017f6765745465726d735f7465726d73436f6e747261637400000000000000000000815250848473ffffffffffffffffffffffffffffffffffffffff16600102610aa3565b610cad6040805190810160405280602081526020017f6765745465726d735f7465726d73436f6e7472616374506172616d65746572738152508483610aa3565b505050565b6000610cf36040805190810160405280600e81526020017f67657442656e6566696369617279000000000000000000000000000000000000815250836106b1565b600190049050919050565b60008060008a8a8a8a8a8a8a8a604051808973ffffffffffffffffffffffffffffffffffffffff1673ffffffffffffffffffffffffffffffffffffffff166c010000000000000000000000000281526014018873ffffffffffffffffffffffffffffffffffffffff1673ffffffffffffffffffffffffffffffffffffffff166c010000000000000000000000000281526014018773ffffffffffffffffffffffffffffffffffffffff1673ffffffffffffffffffffffffffffffffffffffff166c010000000000000000000000000281526014018673ffffffffffffffffffffffffffffffffffffffff1673ffffffffffffffffffffffffffffffffffffffff166c010000000000000000000000000281526014018581526020018473ffffffffffffffffffffffffffffffffffffffff1673ffffffffffffffffffffffffffffffffffffffff166c0100000000000000000000000002815260140183600019166000191681526020018281526020019850505050505050505060405180910390209150610ec16040805190810160405280600681526020017f696e73657274000000000000000000000000000000000000000000000000000081525083611406565b610f046040805190810160405280600681526020017f696e73657274000000000000000000000000000000000000000000000000000081525060006001026106b1565b9050610f10818b611218565b809250505098975050505050505050565b6000610f2b611762565b600080600093505b600a84101561121257610f4461153f565b84600a81101515610f5157fe5b602002015192506000835114151561120557600091505b6000836040518082805190602001908083835b602083101515610fa05780518252602082019150602081019050602083039250610f7b565b6001836020036101000a03801982511681845116808217855250505050505090500191505090815260200160405180910390208054905082101561118d576000836040518082805190602001908083835b6020831015156110165780518252602082019150602081019050602083039250610ff1565b6001836020036101000a03801982511681845116808217855250505050505090500191505090815260200160405180910390208281548110151561105657fe5b90600052602060002090015490506002836040518082805190602001908083835b60208310151561109c5780518252602082019150602081019050602083039250611077565b6001836020036101000a03801982511681845116808217855250505050505090500191505090815260200160405180910390206000826000191660001916815260200190815260200160002060006101000a81549060ff02191690556001836040518082805190602001908083835b602083101515611130578051825260208201915060208101905060208303925061110b565b6001836020036101000a038019825116818451168082178552505050505050905001915050908152602001604051809103902060008260001916600019168152602001908152602001600020600090558180600101925050610f68565b6000836040518082805190602001908083835b6020831015156111c557805182526020820191506020810190506020830392506111a0565b6001836020036101000a038019825116818451168082178552505050505050905001915050908152602001604051809103902060006112049190611776565b5b8380600101945050610f33565b50505050565b6112716040805190810160405280600e81526020017f67657442656e6566696369617279000000000000000000000000000000000000815250838373ffffffffffffffffffffffffffffffffffffffff16600102610aa3565b5050565b60006113166040805190810160405280601181526020017f6d6f6469667942656e656669636961727900000000000000000000000000000081525084846040518083600019166000191681526020018273ffffffffffffffffffffffffffffffffffffffff1673ffffffffffffffffffffffffffffffffffffffff166c0100000000000000000000000002815260140192505050604051809103902061136a565b905092915050565b600061135f6040805190810160405280601081526020017f6765745465726d73436f6e747261637400000000000000000000000000000000815250836106b1565b600190049050919050565b60006002836040518082805190602001908083835b6020831015156113a4578051825260208201915060208101905060208303925061137f565b6001836020036101000a03801982511681845116808217855250505050505090500191505090815260200160405180910390206000836000191660001916815260200190815260200160002060009054906101000a900460ff16905092915050565b60016002836040518082805190602001908083835b602083101515611440578051825260208201915060208101905060208303925061141b565b6001836020036101000a03801982511681845116808217855250505050505090500191505090815260200160405180910390206000836000191660001916815260200190815260200160002060006101000a81548160ff0219169083151502179055506000826040518082805190602001908083835b6020831015156114db57805182526020820191506020810190506020830392506114b6565b6001836020036101000a038019825116818451168082178552505050505050905001915050908152602001604051809103902080548060010182816115209190611736565b9160005260206000209001600083909190915090600019169055505050565b611547611797565b610140604051908101604052806040805190810160405280600681526020017f696e73657274000000000000000000000000000000000000000000000000000081525081526020016040805190810160405280601181526020017f6d6f6469667942656e656669636961727900000000000000000000000000000081525081526020016040805190810160405280600e81526020017f67657442656e656669636961727900000000000000000000000000000000000081525081526020016040805190810160405280601681526020017f6765745465726d735f7465726d73436f6e74726163740000000000000000000081525081526020016040805190810160405280602081526020017f6765745465726d735f7465726d73436f6e7472616374506172616d657465727381525081526020016040805190810160405280601081526020017f6765745465726d73436f6e74726163740000000000000000000000000000000081525081526020016040805190810160405280601a81526020017f6765745465726d73436f6e7472616374506172616d6574657273000000000000815250815260200160206040519081016040528060008152508152602001602060405190810160405280600081525081526020016020604051908101604052806000815250815250905090565b81548183558181151161175d5781836000526020600020918201910161175c91906117c6565b5b505050565b602060405190810160405280600081525090565b508054600082559060005260206000209081019061179491906117c6565b50565b61014060405190810160405280600a905b6117b06117eb565b8152602001906001900390816117a85790505090565b6117e891905b808211156117e45760008160009055506001016117cc565b5090565b90565b6020604051908101604052806000815250905600a165627a7a72305820c6b90f0ce7eea6c189e6839e17a9e88a7cee310e1b704fe85d565309b7e1e5ec0029",
  "source": "/*\n\n  Copyright 2017 Dharma Labs Inc.\n\n  Licensed under the Apache License, Version 2.0 (the \"License\");\n  you may not use this file except in compliance with the License.\n  You may obtain a copy of the License at\n\n    http://www.apache.org/licenses/LICENSE-2.0\n\n  Unless required by applicable law or agreed to in writing, software\n  distributed under the License is distributed on an \"AS IS\" BASIS,\n  WITHOUT WARRANTIES OR CONDITIONS OF ANY KIND, either express or implied.\n  See the License for the specific language governing permissions and\n  limitations under the License.\n\n*/\n\npragma solidity 0.4.18;\n\nimport \"./MockContract.sol\";\n\n\ncontract MockDebtRegistry is MockContract {\n    function insert(\n        address _version,\n        address _beneficiary,\n        address _debtor,\n        address _underwriter,\n        uint _underwriterRiskRating,\n        address _termsContract,\n        bytes32 _termsContractParameters,\n        uint _salt\n    )\n        public\n        returns (bytes32 _issuanceHash)\n    {\n        bytes32 argsSignature = keccak256(\n            _version,\n            _beneficiary,\n            _debtor,\n            _underwriter,\n            _underwriterRiskRating,\n            _termsContract,\n            _termsContractParameters,\n            _salt\n        );\n\n        functionCalledWithArgs(\"insert\", argsSignature);\n\n        bytes32 issuanceHash = getMockReturnValue(\"insert\", DEFAULT_SIGNATURE_ARGS);\n\n        mockGetBeneficiaryReturnValueFor(issuanceHash, _beneficiary);\n\n        return issuanceHash;\n    }\n\n    function modifyBeneficiary(bytes32 issuanceHash, address newBeneficiary)\n        public\n    {\n        functionCalledWithArgs(\"modifyBeneficiary\",\n            keccak256(issuanceHash, newBeneficiary));\n\n        mockGetBeneficiaryReturnValueFor(issuanceHash, newBeneficiary);\n    }\n\n    function getBeneficiary(bytes32 issuanceHash)\n        public\n        view\n        returns (address _mockBeneficiary)\n    {\n        return address(getMockReturnValue(\"getBeneficiary\", issuanceHash));\n    }\n\n    function mockInsertReturnValue(bytes32 issuanceHash) public {\n        mockReturnValue(\"insert\", DEFAULT_SIGNATURE_ARGS, issuanceHash);\n    }\n\n    function mockGetBeneficiaryReturnValueFor(bytes32 issuanceHash, address beneficiary)\n        public\n    {\n        mockReturnValue(\"getBeneficiary\", issuanceHash, bytes32(beneficiary));\n    }\n\n    function getTerms(bytes32 issuanceHash)\n        public\n        view\n        returns (address _termsContract, bytes32 _termsContractParameters)\n    {\n        return (\n            address(getMockReturnValue(\"getTerms_termsContract\", issuanceHash)),\n            getMockReturnValue(\"getTerms_termsContractParameters\", issuanceHash)\n        );\n    }\n\n    function mockGetTermsReturnValueFor(\n        bytes32 issuanceHash,\n        address termsContract,\n        bytes32 termsContractParameters\n    )\n        public\n    {\n        mockReturnValue(\"getTerms_termsContract\", issuanceHash, bytes32(termsContract));\n        mockReturnValue(\"getTerms_termsContractParameters\", issuanceHash, termsContractParameters);\n    }\n\n    function getTermsContract(bytes32 issuanceHash)\n        public\n        view\n        returns (address _termsContract)\n    {\n        return address(getMockReturnValue(\"getTermsContract\", issuanceHash));\n    }\n\n    function mockGetTermsContractReturnValueFor(\n        bytes32 issuanceHash,\n        address termsContract\n    )\n        public\n    {\n        mockReturnValue(\"getTermsContract\", issuanceHash, bytes32(termsContract));\n    }\n\n    function wasInsertCalledWith(\n        address _version,\n        address _beneficiary,\n        address _debtor,\n        address _underwriter,\n        uint _underwriterRiskRating,\n        address _termsContract,\n        bytes32 _termsContractParameters,\n        uint _salt\n    )\n        public\n        view\n        returns (bool _wasCalled)\n    {\n        return wasFunctionCalledWithArgs(\"insert\", keccak256(\n            _version,\n            _beneficiary,\n            _debtor,\n            _underwriter,\n            _underwriterRiskRating,\n            _termsContract,\n            _termsContractParameters,\n            _salt\n        ));\n    }\n\n    function wasModifyBeneficiaryCalledWith(bytes32 issuanceHash, address newBeneficiary)\n        public\n        view\n        returns (bool _wasCalled)\n    {\n        return wasFunctionCalledWithArgs(\"modifyBeneficiary\",\n            keccak256(issuanceHash, newBeneficiary));\n    }\n\n    function getFunctionList()\n        internal\n        returns (string[10] functionNames)\n    {\n        return [\"insert\", \"modifyBeneficiary\", \"getBeneficiary\", \"getTerms_termsContract\",\n            \"getTerms_termsContractParameters\", \"getTermsContract\", \"getTermsContractParameters\", \"\", \"\", \"\"];\n    }\n}\n",
  "sourcePath": "/home/ccusce/dev/dharma_test/collincusce_interview/contracts/test/mocks/MockDebtRegsitry.sol",
  "compiler": {
    "name": "solc",
    "version": "0.4.18+commit.9cf6e910.Emscripten.clang"
  },
  "schemaVersion": "1.0.1",
  "updatedAt": "2018-03-13T17:20:15.873Z"
}