{
  "contractName": "MockZeroExExchange",
  "abi": [
    {
      "constant": true,
      "inputs": [
        {
          "name": "functionName",
          "type": "string"
        },
        {
          "name": "argsSignature",
          "type": "bytes32"
        }
      ],
      "name": "getMockReturnValue",
      "outputs": [
        {
          "name": "_mockReturnValue",
          "type": "bytes32"
        }
      ],
      "payable": false,
      "stateMutability": "view",
      "type": "function"
    },
    {
      "constant": false,
      "inputs": [
        {
          "name": "functionName",
          "type": "string"
        },
        {
          "name": "argsSignature",
          "type": "bytes32"
        },
        {
          "name": "returnValue",
          "type": "bytes32"
        }
      ],
      "name": "mockReturnValue",
      "outputs": [],
      "payable": false,
      "stateMutability": "nonpayable",
      "type": "function"
    },
    {
      "constant": false,
      "inputs": [
        {
          "name": "orderAddresses",
          "type": "address[5]"
        },
        {
          "name": "orderValues",
          "type": "uint256[6]"
        },
        {
          "name": "fillTakerTokenAmount",
          "type": "uint256"
        },
        {
          "name": "shouldThrowOnInsufficientBalanceOrAllowance",
          "type": "bool"
        },
        {
          "name": "v",
          "type": "uint8"
        },
        {
          "name": "r",
          "type": "bytes32"
        },
        {
          "name": "s",
          "type": "bytes32"
        }
      ],
      "name": "fillOrder",
      "outputs": [
        {
          "name": "filledTakerTokenAmount",
          "type": "uint256"
        }
      ],
      "payable": false,
      "stateMutability": "nonpayable",
      "type": "function"
    },
    {
      "constant": false,
      "inputs": [],
      "name": "reset",
      "outputs": [],
      "payable": false,
      "stateMutability": "nonpayable",
      "type": "function"
    },
    {
      "constant": true,
      "inputs": [
        {
          "name": "orderAddresses",
          "type": "address[5]"
        },
        {
          "name": "orderValues",
          "type": "uint256[6]"
        },
        {
          "name": "fillTakerTokenAmount",
          "type": "uint256"
        },
        {
          "name": "shouldThrowOnInsufficientBalanceOrAllowance",
          "type": "bool"
        },
        {
          "name": "v",
          "type": "uint8"
        },
        {
          "name": "r",
          "type": "bytes32"
        },
        {
          "name": "s",
          "type": "bytes32"
        }
      ],
      "name": "wasFillOrderCalledWith",
      "outputs": [
        {
          "name": "wasCalled",
          "type": "bool"
        }
      ],
      "payable": false,
      "stateMutability": "view",
      "type": "function"
    }
  ],
  "bytecode": "0x6060604052341561000f57600080fd5b6111228061001e6000396000f30060606040526004361061006d576000357c0100000000000000000000000000000000000000000000000000000000900463ffffffff168063131018581461007257806380da20d4146100f8578063bc61394a1461016f578063d826f88f1461022f578063e8410ca314610244575b600080fd5b341561007d57600080fd5b6100da600480803590602001908201803590602001908080601f0160208091040260200160405190810160405280939291908181526020018383808284378201915050505050509190803560001916906020019091905050610308565b60405180826000191660001916815260200191505060405180910390f35b341561010357600080fd5b61016d600480803590602001908201803590602001908080601f016020809104026020016040519081016040528093929190818152602001838380828437820191505050505050919080356000191690602001909190803560001916906020019091905050610397565b005b341561017a57600080fd5b6102196004808060a001906005806020026040519081016040528092919082600560200280828437820191505050505091908060c001906006806020026040519081016040528092919082600660200280828437820191505050505091908035906020019091908035151590602001909190803560ff1690602001909190803560001916906020019091908035600019169060200190919050506104c1565b6040518082815260200191505060405180910390f35b341561023a57600080fd5b610242610907565b005b341561024f57600080fd5b6102ee6004808060a001906005806020026040519081016040528092919082600560200280828437820191505050505091908060c001906006806020026040519081016040528092919082600660200280828437820191505050505091908035906020019091908035151590602001909190803560ff169060200190919080356000191690602001909190803560001916906020019091905050610bfe565b604051808215151515815260200191505060405180910390f35b60006001836040518082805190602001908083835b602083101515610342578051825260208201915060208101905060208303925061031d565b6001836020036101000a03801982511681845116808217855250505050505090500191505090815260200160405180910390206000836000191660001916815260200190815260200160002054905092915050565b6000836040518082805190602001908083835b6020831015156103cf57805182526020820191506020810190506020830392506103aa565b6001836020036101000a03801982511681845116808217855250505050505090500191505090815260200160405180910390208054806001018281610414919061102d565b916000526020600020900160008490919091509060001916905550806001846040518082805190602001908083835b6020831015156104685780518252602082019150602081019050602083039250610443565b6001836020036101000a0380198251168184511680821785525050505050509050019150509081526020016040518091039020600084600019166000191681526020019081526020016000208160001916905550505050565b6000806000806000806105fc6040805190810160405280600981526020017f66696c6c4f7264657200000000000000000000000000000000000000000000008152508e8e8e8e8e8e8e6040518088600560200280838360005b8381101561053557808201518184015260208101905061051a565b5050505090500187600660200280838360005b83811015610563578082015181840152602081019050610548565b5050505090500186815260200185151515157f01000000000000000000000000000000000000000000000000000000000000000281526001018460ff1660ff167f0100000000000000000000000000000000000000000000000000000000000000028152600101836000191660001916815260200182600019166000191681526020019750505050505050506040518091039020610d3f565b8c600060058110151561060b57fe5b60200201519450600073ffffffffffffffffffffffffffffffffffffffff168d600160058110151561063957fe5b602002015173ffffffffffffffffffffffffffffffffffffffff1614610672578c600160058110151561066857fe5b6020020151610674565b335b93508c600260058110151561068557fe5b602002015192508c600360058110151561069b57fe5b602002015191508b60006006811015156106b157fe5b602002015190508273ffffffffffffffffffffffffffffffffffffffff166323b872dd8686846000604051602001526040518463ffffffff167c0100000000000000000000000000000000000000000000000000000000028152600401808473ffffffffffffffffffffffffffffffffffffffff1673ffffffffffffffffffffffffffffffffffffffff1681526020018373ffffffffffffffffffffffffffffffffffffffff1673ffffffffffffffffffffffffffffffffffffffff1681526020018281526020019350505050602060405180830381600087803b151561079757600080fd5b6102c65a03f115156107a857600080fd5b50505060405180519050508173ffffffffffffffffffffffffffffffffffffffff166323b872dd85878e6000604051602001526040518463ffffffff167c0100000000000000000000000000000000000000000000000000000000028152600401808473ffffffffffffffffffffffffffffffffffffffff1673ffffffffffffffffffffffffffffffffffffffff1681526020018373ffffffffffffffffffffffffffffffffffffffff1673ffffffffffffffffffffffffffffffffffffffff1681526020018281526020019350505050602060405180830381600087803b151561089257600080fd5b6102c65a03f115156108a357600080fd5b50505060405180519050506108f16040805190810160405280600981526020017f66696c6c4f7264657200000000000000000000000000000000000000000000008152506000600102610308565b6001900495505050505050979650505050505050565b6000610911611059565b600080600093505b600a841015610bf85761092a610e78565b84600a8110151561093757fe5b6020020151925060008351141515610beb57600091505b6000836040518082805190602001908083835b6020831015156109865780518252602082019150602081019050602083039250610961565b6001836020036101000a038019825116818451168082178552505050505050905001915050908152602001604051809103902080549050821015610b73576000836040518082805190602001908083835b6020831015156109fc57805182526020820191506020810190506020830392506109d7565b6001836020036101000a038019825116818451168082178552505050505050905001915050908152602001604051809103902082815481101515610a3c57fe5b90600052602060002090015490506002836040518082805190602001908083835b602083101515610a825780518252602082019150602081019050602083039250610a5d565b6001836020036101000a03801982511681845116808217855250505050505090500191505090815260200160405180910390206000826000191660001916815260200190815260200160002060006101000a81549060ff02191690556001836040518082805190602001908083835b602083101515610b165780518252602082019150602081019050602083039250610af1565b6001836020036101000a03801982511681845116808217855250505050505090500191505090815260200160405180910390206000826000191660001916815260200190815260200160002060009055818060010192505061094e565b6000836040518082805190602001908083835b602083101515610bab5780518252602082019150602081019050602083039250610b86565b6001836020036101000a03801982511681845116808217855250505050505090500191505090815260200160405180910390206000610bea919061106d565b5b8380600101945050610919565b50505050565b6000610d326040805190810160405280600981526020017f66696c6c4f726465720000000000000000000000000000000000000000000000815250898989898989896040518088600560200280838360005b83811015610c6b578082015181840152602081019050610c50565b5050505090500187600660200280838360005b83811015610c99578082015181840152602081019050610c7e565b5050505090500186815260200185151515157f01000000000000000000000000000000000000000000000000000000000000000281526001018460ff1660ff167f0100000000000000000000000000000000000000000000000000000000000000028152600101836000191660001916815260200182600019166000191681526020019750505050505050506040518091039020610f91565b9050979650505050505050565b60016002836040518082805190602001908083835b602083101515610d795780518252602082019150602081019050602083039250610d54565b6001836020036101000a03801982511681845116808217855250505050505090500191505090815260200160405180910390206000836000191660001916815260200190815260200160002060006101000a81548160ff0219169083151502179055506000826040518082805190602001908083835b602083101515610e145780518252602082019150602081019050602083039250610def565b6001836020036101000a03801982511681845116808217855250505050505090500191505090815260200160405180910390208054806001018281610e59919061102d565b9160005260206000209001600083909190915090600019169055505050565b610e8061108e565b610140604051908101604052806040805190810160405280600981526020017f66696c6c4f726465720000000000000000000000000000000000000000000000815250815260200160206040519081016040528060008152508152602001602060405190810160405280600081525081526020016020604051908101604052806000815250815260200160206040519081016040528060008152508152602001602060405190810160405280600081525081526020016020604051908101604052806000815250815260200160206040519081016040528060008152508152602001602060405190810160405280600081525081526020016020604051908101604052806000815250815250905090565b60006002836040518082805190602001908083835b602083101515610fcb5780518252602082019150602081019050602083039250610fa6565b6001836020036101000a03801982511681845116808217855250505050505090500191505090815260200160405180910390206000836000191660001916815260200190815260200160002060009054906101000a900460ff16905092915050565b8154818355818115116110545781836000526020600020918201910161105391906110bd565b5b505050565b602060405190810160405280600081525090565b508054600082559060005260206000209081019061108b91906110bd565b50565b61014060405190810160405280600a905b6110a76110e2565b81526020019060019003908161109f5790505090565b6110df91905b808211156110db5760008160009055506001016110c3565b5090565b90565b6020604051908101604052806000815250905600a165627a7a72305820525ddd56788889f742e6daffc474a71ee3198c28c764f12de80aa90de3d8c1bb0029",
  "source": "/*\n\n  Copyright 2017 Dharma Labs Inc.\n\n  Licensed under the Apache License, Version 2.0 (the \"License\");\n  you may not use this file except in compliance with the License.\n  You may obtain a copy of the License at\n\n    http://www.apache.org/licenses/LICENSE-2.0\n\n  Unless required by applicable law or agreed to in writing, software\n  distributed under the License is distributed on an \"AS IS\" BASIS,\n  WITHOUT WARRANTIES OR CONDITIONS OF ANY KIND, either express or implied.\n  See the License for the specific language governing permissions and\n  limitations under the License.\n\n*/\n\npragma solidity 0.4.18;\n\nimport \"./MockContract.sol\";\nimport \"zeppelin-solidity/contracts/token/ERC20/ERC20.sol\";\n\n\ncontract MockZeroExExchange is MockContract {\n    function fillOrder(\n        address[5] orderAddresses,\n        uint[6] orderValues,\n        uint fillTakerTokenAmount,\n        bool shouldThrowOnInsufficientBalanceOrAllowance,\n        uint8 v,\n        bytes32 r,\n        bytes32 s\n    )\n        public\n        returns (uint filledTakerTokenAmount)\n    {\n        functionCalledWithArgs(\"fillOrder\", keccak256(\n            orderAddresses,\n            orderValues,\n            fillTakerTokenAmount,\n            shouldThrowOnInsufficientBalanceOrAllowance,\n            v,\n            r,\n            s\n        ));\n\n        address maker = orderAddresses[0];\n        address taker = orderAddresses[1] == address(0) ? msg.sender : orderAddresses[1];\n        address makerToken = orderAddresses[2];\n        address takerToken = orderAddresses[3];\n        uint makerTokenAmount = orderValues[0];\n\n        // Call transferFrom on the maker and taker tokens in order to simulate swapping\n        ERC20(makerToken).transferFrom(maker, taker, makerTokenAmount);\n        ERC20(takerToken).transferFrom(taker, maker, fillTakerTokenAmount);\n\n        return uint(getMockReturnValue(\"fillOrder\", DEFAULT_SIGNATURE_ARGS));\n    }\n\n    function wasFillOrderCalledWith(\n        address[5] orderAddresses,\n        uint[6] orderValues,\n        uint fillTakerTokenAmount,\n        bool shouldThrowOnInsufficientBalanceOrAllowance,\n        uint8 v,\n        bytes32 r,\n        bytes32 s\n    )\n        public\n        view\n        returns (bool wasCalled)\n    {\n        return wasFunctionCalledWithArgs(\"fillOrder\", keccak256(\n            orderAddresses,\n            orderValues,\n            fillTakerTokenAmount,\n            shouldThrowOnInsufficientBalanceOrAllowance,\n            v,\n            r,\n            s\n        ));\n    }\n\n    function getFunctionList()\n        internal\n        returns (string[10] functionNames)\n    {\n        return [\"fillOrder\", \"\", \"\", \"\", \"\", \"\", \"\", \"\", \"\", \"\"];\n    }\n}\n",
  "sourcePath": "/home/ccusce/dev/dharma_test/collincusce_interview/contracts/test/mocks/MockZeroExExchange.sol",
  "compiler": {
    "name": "solc",
    "version": "0.4.18+commit.9cf6e910.Emscripten.clang"
  },
  "schemaVersion": "1.0.1",
  "updatedAt": "2018-03-13T17:20:15.877Z"
}