{
  "contractName": "Tranche",
  "abi": [
    {
      "constant": true,
      "inputs": [],
      "name": "name",
      "outputs": [
        {
          "name": "",
          "type": "string"
        }
      ],
      "payable": false,
      "stateMutability": "view",
      "type": "function"
    },
    {
      "constant": true,
      "inputs": [
        {
          "name": "_tokenId",
          "type": "uint256"
        }
      ],
      "name": "getApproved",
      "outputs": [
        {
          "name": "_approved",
          "type": "address"
        }
      ],
      "payable": false,
      "stateMutability": "view",
      "type": "function"
    },
    {
      "constant": false,
      "inputs": [
        {
          "name": "_to",
          "type": "address"
        },
        {
          "name": "_tokenId",
          "type": "uint256"
        }
      ],
      "name": "approve",
      "outputs": [],
      "payable": false,
      "stateMutability": "nonpayable",
      "type": "function"
    },
    {
      "constant": true,
      "inputs": [],
      "name": "implementsERC721",
      "outputs": [
        {
          "name": "_implementsERC721",
          "type": "bool"
        }
      ],
      "payable": false,
      "stateMutability": "view",
      "type": "function"
    },
    {
      "constant": true,
      "inputs": [],
      "name": "totalSupply",
      "outputs": [
        {
          "name": "_totalSupply",
          "type": "uint256"
        }
      ],
      "payable": false,
      "stateMutability": "view",
      "type": "function"
    },
    {
      "constant": false,
      "inputs": [
        {
          "name": "_from",
          "type": "address"
        },
        {
          "name": "_to",
          "type": "address"
        },
        {
          "name": "_tokenId",
          "type": "uint256"
        }
      ],
      "name": "transferFrom",
      "outputs": [],
      "payable": false,
      "stateMutability": "nonpayable",
      "type": "function"
    },
    {
      "constant": true,
      "inputs": [
        {
          "name": "_owner",
          "type": "address"
        },
        {
          "name": "_index",
          "type": "uint256"
        }
      ],
      "name": "tokenOfOwnerByIndex",
      "outputs": [
        {
          "name": "_tokenId",
          "type": "uint256"
        }
      ],
      "payable": false,
      "stateMutability": "view",
      "type": "function"
    },
    {
      "constant": true,
      "inputs": [],
      "name": "totalPayout",
      "outputs": [
        {
          "name": "",
          "type": "uint256"
        }
      ],
      "payable": false,
      "stateMutability": "view",
      "type": "function"
    },
    {
      "constant": true,
      "inputs": [
        {
          "name": "_tokenId",
          "type": "uint256"
        }
      ],
      "name": "currentPayout",
      "outputs": [
        {
          "name": "",
          "type": "uint256"
        }
      ],
      "payable": false,
      "stateMutability": "view",
      "type": "function"
    },
    {
      "constant": true,
      "inputs": [
        {
          "name": "_tokenId",
          "type": "uint256"
        }
      ],
      "name": "ownerOf",
      "outputs": [
        {
          "name": "_owner",
          "type": "address"
        }
      ],
      "payable": false,
      "stateMutability": "view",
      "type": "function"
    },
    {
      "constant": true,
      "inputs": [
        {
          "name": "_tokenId",
          "type": "uint256"
        }
      ],
      "name": "tokenMetadata",
      "outputs": [
        {
          "name": "_infoUrl",
          "type": "string"
        }
      ],
      "payable": false,
      "stateMutability": "view",
      "type": "function"
    },
    {
      "constant": true,
      "inputs": [
        {
          "name": "_owner",
          "type": "address"
        }
      ],
      "name": "balanceOf",
      "outputs": [
        {
          "name": "_balance",
          "type": "uint256"
        }
      ],
      "payable": false,
      "stateMutability": "view",
      "type": "function"
    },
    {
      "constant": true,
      "inputs": [],
      "name": "owner",
      "outputs": [
        {
          "name": "",
          "type": "address"
        }
      ],
      "payable": false,
      "stateMutability": "view",
      "type": "function"
    },
    {
      "constant": true,
      "inputs": [],
      "name": "trancheLimit",
      "outputs": [
        {
          "name": "",
          "type": "uint256"
        }
      ],
      "payable": false,
      "stateMutability": "view",
      "type": "function"
    },
    {
      "constant": true,
      "inputs": [],
      "name": "expectedPayoutTotal",
      "outputs": [
        {
          "name": "",
          "type": "uint256"
        }
      ],
      "payable": false,
      "stateMutability": "view",
      "type": "function"
    },
    {
      "constant": true,
      "inputs": [],
      "name": "symbol",
      "outputs": [
        {
          "name": "",
          "type": "string"
        }
      ],
      "payable": false,
      "stateMutability": "view",
      "type": "function"
    },
    {
      "constant": true,
      "inputs": [
        {
          "name": "",
          "type": "uint256"
        }
      ],
      "name": "tokenPayouts",
      "outputs": [
        {
          "name": "",
          "type": "uint256"
        }
      ],
      "payable": false,
      "stateMutability": "view",
      "type": "function"
    },
    {
      "constant": false,
      "inputs": [
        {
          "name": "_to",
          "type": "address"
        },
        {
          "name": "_tokenId",
          "type": "uint256"
        }
      ],
      "name": "transfer",
      "outputs": [],
      "payable": false,
      "stateMutability": "nonpayable",
      "type": "function"
    },
    {
      "constant": true,
      "inputs": [],
      "name": "numTokensTotal",
      "outputs": [
        {
          "name": "",
          "type": "uint256"
        }
      ],
      "payable": false,
      "stateMutability": "view",
      "type": "function"
    },
    {
      "constant": true,
      "inputs": [],
      "name": "trancheValue",
      "outputs": [
        {
          "name": "",
          "type": "uint256"
        }
      ],
      "payable": false,
      "stateMutability": "view",
      "type": "function"
    },
    {
      "constant": true,
      "inputs": [
        {
          "name": "_owner",
          "type": "address"
        }
      ],
      "name": "getOwnerTokens",
      "outputs": [
        {
          "name": "_tokenIds",
          "type": "uint256[]"
        }
      ],
      "payable": false,
      "stateMutability": "view",
      "type": "function"
    },
    {
      "constant": false,
      "inputs": [
        {
          "name": "_tokenId",
          "type": "uint256"
        },
        {
          "name": "_totalToMatch",
          "type": "uint256"
        }
      ],
      "name": "matchPayout",
      "outputs": [
        {
          "name": "",
          "type": "uint256"
        }
      ],
      "payable": false,
      "stateMutability": "nonpayable",
      "type": "function"
    },
    {
      "constant": false,
      "inputs": [
        {
          "name": "newOwner",
          "type": "address"
        }
      ],
      "name": "transferOwnership",
      "outputs": [],
      "payable": false,
      "stateMutability": "nonpayable",
      "type": "function"
    },
    {
      "inputs": [
        {
          "name": "_trancheLimit",
          "type": "uint256"
        },
        {
          "name": "_trancheValue",
          "type": "uint256"
        }
      ],
      "payable": false,
      "stateMutability": "nonpayable",
      "type": "constructor"
    },
    {
      "anonymous": false,
      "inputs": [
        {
          "indexed": true,
          "name": "previousOwner",
          "type": "address"
        },
        {
          "indexed": true,
          "name": "newOwner",
          "type": "address"
        }
      ],
      "name": "OwnershipTransferred",
      "type": "event"
    },
    {
      "anonymous": false,
      "inputs": [
        {
          "indexed": true,
          "name": "_from",
          "type": "address"
        },
        {
          "indexed": true,
          "name": "_to",
          "type": "address"
        },
        {
          "indexed": false,
          "name": "_tokenId",
          "type": "uint256"
        }
      ],
      "name": "Transfer",
      "type": "event"
    },
    {
      "anonymous": false,
      "inputs": [
        {
          "indexed": true,
          "name": "_owner",
          "type": "address"
        },
        {
          "indexed": true,
          "name": "_approved",
          "type": "address"
        },
        {
          "indexed": false,
          "name": "_tokenId",
          "type": "uint256"
        }
      ],
      "name": "Approval",
      "type": "event"
    }
  ],
  "bytecode": "0x60606040526040805190810160405280600c81526020017f5472616e636865546f6b656e0000000000000000000000000000000000000000815250600c908051906020019062000051929190620002fa565b506040805190810160405280600481526020017f5452544b00000000000000000000000000000000000000000000000000000000815250600d90805190602001906200009f929190620002fa565b503415620000ac57600080fd5b60405160408062001d4d83398101604052808051906020019091908051906020019091905050600033600860006101000a81548173ffffffffffffffffffffffffffffffffffffffff021916908373ffffffffffffffffffffffffffffffffffffffff1602179055508260098190555081600a819055506000600b81905550600090505b82811015620001b357620001598133620001bc6401000000000262001777176401000000009004565b6200017933826200021264010000000002620017cd176401000000009004565b6200019f6001600254620002db640100000000026200151a179091906401000000009004565b600281905550808060010191505062000130565b505050620003d8565b806003600084815260200190815260200160002060006101000a81548173ffffffffffffffffffffffffffffffffffffffff021916908373ffffffffffffffffffffffffffffffffffffffff1602179055505050565b600660008373ffffffffffffffffffffffffffffffffffffffff1673ffffffffffffffffffffffffffffffffffffffff168152602001908152602001600020805480600101828162000265919062000381565b9160005260206000209001600083909190915055506001600660008473ffffffffffffffffffffffffffffffffffffffff1673ffffffffffffffffffffffffffffffffffffffff168152602001908152602001600020805490500360076000838152602001908152602001600020819055505050565b6000808284019050838110151515620002f057fe5b8091505092915050565b828054600181600116156101000203166002900490600052602060002090601f016020900481019282601f106200033d57805160ff19168380011785556200036e565b828001600101855582156200036e579182015b828111156200036d57825182559160200191906001019062000350565b5b5090506200037d9190620003b0565b5090565b815481835581811511620003ab57818360005260206000209182019101620003aa9190620003b0565b5b505050565b620003d591905b80821115620003d1576000816000905550600101620003b7565b5090565b90565b61196580620003e86000396000f300606060405260043610610133576000357c0100000000000000000000000000000000000000000000000000000000900463ffffffff16806306fdde0314610138578063081812fc146101c6578063095ea7b3146102295780631051db341461026b57806318160ddd1461029857806323b872dd146102c15780632f745c5914610322578063454f7b8f14610378578063578c0b27146103a15780636352211e146103d85780636914db601461043b57806370a08231146104d75780638da5cb5b1461052457806391aacbce1461057957806395cd5d1c146105a257806395d89b41146105cb5780639b1da7eb14610659578063a9059cbb14610690578063af129dc2146106d2578063b2ca08cd146106fb578063d63d4af014610724578063e936d796146107b2578063f2fde38b146107f2575b600080fd5b341561014357600080fd5b61014b61082b565b6040518080602001828103825283818151815260200191508051906020019080838360005b8381101561018b578082015181840152602081019050610170565b50505050905090810190601f1680156101b85780820380516001836020036101000a031916815260200191505b509250505060405180910390f35b34156101d157600080fd5b6101e760048080359060200190919050506108c9565b604051808273ffffffffffffffffffffffffffffffffffffffff1673ffffffffffffffffffffffffffffffffffffffff16815260200191505060405180910390f35b341561023457600080fd5b610269600480803573ffffffffffffffffffffffffffffffffffffffff169060200190919080359060200190919050506108db565b005b341561027657600080fd5b61027e610a88565b604051808215151515815260200191505060405180910390f35b34156102a357600080fd5b6102ab610a91565b6040518082815260200191505060405180910390f35b34156102cc57600080fd5b610320600480803573ffffffffffffffffffffffffffffffffffffffff1690602001909190803573ffffffffffffffffffffffffffffffffffffffff16906020019091908035906020019091905050610a9b565b005b341561032d57600080fd5b610362600480803573ffffffffffffffffffffffffffffffffffffffff16906020019091908035906020019091905050610c66565b6040518082815260200191505060405180910390f35b341561038357600080fd5b61038b610c7a565b6040518082815260200191505060405180910390f35b34156103ac57600080fd5b6103c26004808035906020019091905050610c80565b6040518082815260200191505060405180910390f35b34156103e357600080fd5b6103f96004808035906020019091905050610c9d565b604051808273ffffffffffffffffffffffffffffffffffffffff1673ffffffffffffffffffffffffffffffffffffffff16815260200191505060405180910390f35b341561044657600080fd5b61045c6004808035906020019091905050610caf565b6040518080602001828103825283818151815260200191508051906020019080838360005b8381101561049c578082015181840152602081019050610481565b50505050905090810190601f1680156104c95780820380516001836020036101000a031916815260200191505b509250505060405180910390f35b34156104e257600080fd5b61050e600480803573ffffffffffffffffffffffffffffffffffffffff16906020019091905050610d6a565b6040518082815260200191505060405180910390f35b341561052f57600080fd5b610537610db6565b604051808273ffffffffffffffffffffffffffffffffffffffff1673ffffffffffffffffffffffffffffffffffffffff16815260200191505060405180910390f35b341561058457600080fd5b61058c610ddc565b6040518082815260200191505060405180910390f35b34156105ad57600080fd5b6105b5610de2565b6040518082815260200191505060405180910390f35b34156105d657600080fd5b6105de610e00565b6040518080602001828103825283818151815260200191508051906020019080838360005b8381101561061e578082015181840152602081019050610603565b50505050905090810190601f16801561064b5780820380516001836020036101000a031916815260200191505b509250505060405180910390f35b341561066457600080fd5b61067a6004808035906020019091905050610e9e565b6040518082815260200191505060405180910390f35b341561069b57600080fd5b6106d0600480803573ffffffffffffffffffffffffffffffffffffffff16906020019091908035906020019091905050610eb6565b005b34156106dd57600080fd5b6106e561103e565b6040518082815260200191505060405180910390f35b341561070657600080fd5b61070e611044565b6040518082815260200191505060405180910390f35b341561072f57600080fd5b61075b600480803573ffffffffffffffffffffffffffffffffffffffff1690602001909190505061104a565b6040518080602001828103825283818151815260200191508051906020019060200280838360005b8381101561079e578082015181840152602081019050610783565b505050509050019250505060405180910390f35b34156107bd57600080fd5b6107dc6004808035906020019091908035906020019091905050611062565b6040518082815260200191505060405180910390f35b34156107fd57600080fd5b610829600480803573ffffffffffffffffffffffffffffffffffffffff16906020019091905050611173565b005b600c8054600181600116156101000203166002900480601f0160208091040260200160405190810160405280929190818152602001828054600181600116156101000203166002900480156108c15780601f10610896576101008083540402835291602001916108c1565b820191906000526020600020905b8154815290600101906020018083116108a457829003601f168201915b505050505081565b60006108d4826112cb565b9050919050565b80600073ffffffffffffffffffffffffffffffffffffffff166108fd82610c9d565b73ffffffffffffffffffffffffffffffffffffffff161415151561092057600080fd5b61092982610c9d565b73ffffffffffffffffffffffffffffffffffffffff163373ffffffffffffffffffffffffffffffffffffffff1614151561096257600080fd5b8273ffffffffffffffffffffffffffffffffffffffff163373ffffffffffffffffffffffffffffffffffffffff161415151561099d57600080fd5b600073ffffffffffffffffffffffffffffffffffffffff166109be836112cb565b73ffffffffffffffffffffffffffffffffffffffff16141580610a0e5750600073ffffffffffffffffffffffffffffffffffffffff168373ffffffffffffffffffffffffffffffffffffffff1614155b15610a8357610a1d8383611308565b8273ffffffffffffffffffffffffffffffffffffffff163373ffffffffffffffffffffffffffffffffffffffff167f8c5be1e5ebec7d5bd14f71427d1e84f3dd0314c0f7b2291e5b200ac8c7c3b925846040518082815260200191505060405180910390a35b505050565b60006001905090565b6000600254905090565b80600073ffffffffffffffffffffffffffffffffffffffff16610abd82610c9d565b73ffffffffffffffffffffffffffffffffffffffff1614151515610ae057600080fd5b3373ffffffffffffffffffffffffffffffffffffffff16610b00836108c9565b73ffffffffffffffffffffffffffffffffffffffff16141515610b2257600080fd5b8373ffffffffffffffffffffffffffffffffffffffff16610b4283610c9d565b73ffffffffffffffffffffffffffffffffffffffff16141515610b6457600080fd5b600073ffffffffffffffffffffffffffffffffffffffff168373ffffffffffffffffffffffffffffffffffffffff1614151515610ba057600080fd5b610bab84848461135e565b60008473ffffffffffffffffffffffffffffffffffffffff167f8c5be1e5ebec7d5bd14f71427d1e84f3dd0314c0f7b2291e5b200ac8c7c3b925846040518082815260200191505060405180910390a38273ffffffffffffffffffffffffffffffffffffffff168473ffffffffffffffffffffffffffffffffffffffff167fddf252ad1be2c89b69c2b068fc378daa952ba7f163c4a11628f55a4df523b3ef846040518082815260200191505060405180910390a350505050565b6000610c72838361138a565b905092915050565b600b5481565b6000600e6000838152602001908152602001600020549050919050565b6000610ca8826113ec565b9050919050565b610cb7611894565b600560008381526020019081526020016000208054600181600116156101000203166002900480601f016020809104026020016040519081016040528092919081815260200182805460018160011615610100020316600290048015610d5e5780601f10610d3357610100808354040283529160200191610d5e565b820191906000526020600020905b815481529060010190602001808311610d4157829003601f168201915b50505050509050919050565b6000600660008373ffffffffffffffffffffffffffffffffffffffff1673ffffffffffffffffffffffffffffffffffffffff168152602001908152602001600020805490509050919050565b600860009054906101000a900473ffffffffffffffffffffffffffffffffffffffff1681565b60095481565b6000610dfb600a5460095461142990919063ffffffff16565b905090565b600d8054600181600116156101000203166002900480601f016020809104026020016040519081016040528092919081815260200182805460018160011615610100020316600290048015610e965780601f10610e6b57610100808354040283529160200191610e96565b820191906000526020600020905b815481529060010190602001808311610e7957829003601f168201915b505050505081565b600e6020528060005260406000206000915090505481565b80600073ffffffffffffffffffffffffffffffffffffffff16610ed882610c9d565b73ffffffffffffffffffffffffffffffffffffffff1614151515610efb57600080fd5b3373ffffffffffffffffffffffffffffffffffffffff16610f1b83610c9d565b73ffffffffffffffffffffffffffffffffffffffff16141515610f3d57600080fd5b600073ffffffffffffffffffffffffffffffffffffffff168373ffffffffffffffffffffffffffffffffffffffff1614151515610f7957600080fd5b610f8433848461135e565b60003373ffffffffffffffffffffffffffffffffffffffff167f8c5be1e5ebec7d5bd14f71427d1e84f3dd0314c0f7b2291e5b200ac8c7c3b925846040518082815260200191505060405180910390a38273ffffffffffffffffffffffffffffffffffffffff163373ffffffffffffffffffffffffffffffffffffffff167fddf252ad1be2c89b69c2b068fc378daa952ba7f163c4a11628f55a4df523b3ef846040518082815260200191505060405180910390a3505050565b60025481565b600a5481565b6110526118a8565b61105b82611464565b9050919050565b600080600860009054906101000a900473ffffffffffffffffffffffffffffffffffffffff1673ffffffffffffffffffffffffffffffffffffffff163373ffffffffffffffffffffffffffffffffffffffff161415156110c157600080fd5b6009546110cc610a91565b1415156110d857600080fd5b83600a54600e6000838152602001908152602001600020541015156110fc57600080fd5b600a54841115151561110d57600080fd5b611133600e6000878152602001908152602001600020548561150190919063ffffffff16565b915083600e60008781526020019081526020016000208190555061116282600b5461151a90919063ffffffff16565b600b81905550819250505092915050565b600860009054906101000a900473ffffffffffffffffffffffffffffffffffffffff1673ffffffffffffffffffffffffffffffffffffffff163373ffffffffffffffffffffffffffffffffffffffff161415156111cf57600080fd5b600073ffffffffffffffffffffffffffffffffffffffff168173ffffffffffffffffffffffffffffffffffffffff161415151561120b57600080fd5b8073ffffffffffffffffffffffffffffffffffffffff16600860009054906101000a900473ffffffffffffffffffffffffffffffffffffffff1673ffffffffffffffffffffffffffffffffffffffff167f8be0079c531659141344cd1fd0a4f28419497f9722a3daafe3b4186f6b6457e060405160405180910390a380600860006101000a81548173ffffffffffffffffffffffffffffffffffffffff021916908373ffffffffffffffffffffffffffffffffffffffff16021790555050565b60006004600083815260200190815260200160002060009054906101000a900473ffffffffffffffffffffffffffffffffffffffff169050919050565b816004600083815260200190815260200160002060006101000a81548173ffffffffffffffffffffffffffffffffffffffff021916908373ffffffffffffffffffffffffffffffffffffffff1602179055505050565b61136781611538565b611371838261158e565b61137b8183611777565b61138582826117cd565b505050565b6000600660008473ffffffffffffffffffffffffffffffffffffffff1673ffffffffffffffffffffffffffffffffffffffff168152602001908152602001600020828154811015156113d857fe5b906000526020600020900154905092915050565b60006003600083815260200190815260200160002060009054906101000a900473ffffffffffffffffffffffffffffffffffffffff169050919050565b600080600084141561143e576000915061145d565b828402905082848281151561144f57fe5b0414151561145957fe5b8091505b5092915050565b61146c6118a8565b600660008373ffffffffffffffffffffffffffffffffffffffff1673ffffffffffffffffffffffffffffffffffffffff1681526020019081526020016000208054806020026020016040519081016040528092919081815260200182805480156114f557602002820191906000526020600020905b8154815260200190600101908083116114e1575b50505050509050919050565b600082821115151561150f57fe5b818303905092915050565b600080828401905083811015151561152e57fe5b8091505092915050565b60006004600083815260200190815260200160002060006101000a81548173ffffffffffffffffffffffffffffffffffffffff021916908373ffffffffffffffffffffffffffffffffffffffff16021790555050565b6000806000600660008673ffffffffffffffffffffffffffffffffffffffff1673ffffffffffffffffffffffffffffffffffffffff16815260200190815260200160002080549050925060076000858152602001908152602001600020549150600660008673ffffffffffffffffffffffffffffffffffffffff1673ffffffffffffffffffffffffffffffffffffffff1681526020019081526020016000206001840381548110151561163d57fe5b906000526020600020900154905080600660008773ffffffffffffffffffffffffffffffffffffffff1673ffffffffffffffffffffffffffffffffffffffff1681526020019081526020016000208381548110151561169857fe5b906000526020600020900181905550816007600083815260200190815260200160002081905550600660008673ffffffffffffffffffffffffffffffffffffffff1673ffffffffffffffffffffffffffffffffffffffff1681526020019081526020016000206001840381548110151561170e57fe5b906000526020600020900160009055600660008673ffffffffffffffffffffffffffffffffffffffff1673ffffffffffffffffffffffffffffffffffffffff16815260200190815260200160002080548091906001900361176f91906118bc565b505050505050565b806003600084815260200190815260200160002060006101000a81548173ffffffffffffffffffffffffffffffffffffffff021916908373ffffffffffffffffffffffffffffffffffffffff1602179055505050565b600660008373ffffffffffffffffffffffffffffffffffffffff1673ffffffffffffffffffffffffffffffffffffffff168152602001908152602001600020805480600101828161181e91906118e8565b9160005260206000209001600083909190915055506001600660008473ffffffffffffffffffffffffffffffffffffffff1673ffffffffffffffffffffffffffffffffffffffff168152602001908152602001600020805490500360076000838152602001908152602001600020819055505050565b602060405190810160405280600081525090565b602060405190810160405280600081525090565b8154818355818115116118e3578183600052602060002091820191016118e29190611914565b5b505050565b81548183558181151161190f5781836000526020600020918201910161190e9190611914565b5b505050565b61193691905b8082111561193257600081600090555060010161191a565b5090565b905600a165627a7a723058208f61bc08ed4bbb10dba66671e56db4f54c6bf12fedef87bd8e44f04beea60fa80029",
  "source": "/*\n\n  Copyright 2017 Dharma Labs Inc.\n\n  Licensed under the Apache License, Version 2.0 (the \"License\");\n  you may not use this file except in compliance with the License.\n  You may obtain a copy of the License at\n\n    http://www.apache.org/licenses/LICENSE-2.0\n\n  Unless required by applicable law or agreed to in writing, software\n  distributed under the License is distributed on an \"AS IS\" BASIS,\n  WITHOUT WARRANTIES OR CONDITIONS OF ANY KIND, either express or implied.\n  See the License for the specific language governing permissions and\n  limitations under the License.\n\n*/\n\npragma solidity 0.4.18;\n\nimport \"zeppelin-solidity/contracts/math/SafeMath.sol\";\nimport \"NonFungibleToken/contracts/NonFungibleToken.sol\";\nimport \"zeppelin-solidity/contracts/ownership/Ownable.sol\";\n\n\ncontract Tranche is NonFungibleToken, Ownable  {\n    using SafeMath for uint;\n\n    uint public trancheLimit;\n    uint public trancheValue;\n    uint public totalPayout;\n\n    string public name  = \"TrancheToken\";\n    string public symbol = \"TRTK\";\n\n    //_tokenId to value\n    mapping (uint => uint) public tokenPayouts;\n  \n    //set up so you create each tranche\n    function Tranche(uint _trancheLimit, uint _trancheValue) public {\n        //limit on the number of tranche's allowed \n        trancheLimit = _trancheLimit;\n        //limit on the tranche value\n        trancheValue = _trancheValue;\n        totalPayout = 0;\n        uint i;\n        for(i = 0; i < _trancheLimit; i++){\n            _setTokenOwner(i, msg.sender);\n            _addTokenToOwnersList(msg.sender, i);\n\n            numTokensTotal = numTokensTotal.add(1);\n        }\n        \n    }\n\n    function currentPayout(uint _tokenId) public view returns (uint){\n        return tokenPayouts[_tokenId];\n    }\n\n    function expectedPayoutTotal() public view returns(uint){\n        return trancheLimit.mul(trancheValue);\n    }\n\n    //takes a target value, matches it, returns the amount added to match that value\n    function matchPayout(uint _tokenId, uint _totalToMatch) public onlyOwner requireFullTranche requireNotPayedInFull(_tokenId) returns (uint) { \n        require(_totalToMatch <= trancheValue);\n        uint _addVal = _totalToMatch.sub(tokenPayouts[_tokenId]);\n        tokenPayouts[_tokenId] = _totalToMatch;\n        totalPayout = totalPayout.add(_addVal);\n        return _addVal;\n    }\n\n    modifier requireNotPayedInFull(uint _tokenId) { \n        require(tokenPayouts[_tokenId] < trancheValue);\n        _; \n    }\n    \n\n    modifier requireFullTranche() { \n        require(totalSupply() == trancheLimit); \n        _; \n    }\n    \n\n    modifier limitTrancheSupply() { \n        require(totalSupply() <= trancheLimit); \n        _; \n    }\n    \n\n}",
  "sourcePath": "/home/ccusce/dev/dharma_test/collincusce_interview/contracts/examples/Tranche.sol",
  "compiler": {
    "name": "solc",
    "version": "0.4.18+commit.9cf6e910.Emscripten.clang"
  },
  "schemaVersion": "1.0.1",
  "updatedAt": "2018-03-13T14:05:34.075Z"
}